:020000040800F2
:1000000000500020850F0008D50F0008D50F00080C
:10001000D50F0008D50F0008D50F0008000000001C
:10002000000000000000000000000000D50F0008E4
:10003000D50F000800000000D50F0008D50F0008FC
:10004000D50F0008D50F0008D50F0008D50F000800
:10005000D50F0008D50F0008D50F0008D50F0008F0
:10006000D50F0008D50F0008D50F0008D50F0008E0
:10007000D50F0008D50F0008D50F0008D50F0008D0
:10008000D50F0008D50F0008D50F0008D50F0008C0
:10009000D50F0008D50F0008D50F0008D50F0008B0
:1000A000D50F0008D50F0008D50F0008D50F0008A0
:1000B000D50F0008D50F0008D50F0008D50F000890
:1000C000D50F0008D50F0008D50F0008D50F000880
:1000D000D50F0008D50F0008D50F0008D50F000870
:1000E000D50F0008D50F000800000000D50F00084C
:1000F000D50F0008D50F0008D50F0008D50F000850
:10010000D50F0008D50F0008D50F0008D50F00083F
:10011000D50F0008D50F0008D50F0008D50F00082F
:10012000D50F0008D50F0008D50F0008D50F00081F
:1001300010B5054C237833B9044B13B10448AFF321
:1001400000800123237010BD5C000020000000002F
:100150002010000808B5034B1BB103490348AFF357
:10016000008008BD00000000600000202010000892
:1001700053B94AB9002908BF00281CBF4FF0FF310E
:100180004FF0FF3000F072B9ADF1080C6DE904CE0C
:1001900000F006F8DDF804E0DDE9022304B0704762
:1001A0002DE9F047089E0D4604468E46002B4CD1A3
:1001B0008A42944667D9B2FA82F353B102FA03FC39
:1001C000C3F1200201FA03FE20FA02F242EA0E0E07
:1001D0009C404FEA1C47BEFBF7F11FFA8CF507FB6A
:1001E00011EE01FB05F0220C42EA0E4290420AD9C0
:1001F0001CEB020201F1FF3E80F01981904240F2B7
:10020000168102396244121AB2FBF7F007FB102282
:1002100000FB05F5A4B244EA0244A5420AD91CEB4E
:10022000040400F1FF3280F00481A54240F2018114
:100230006444023840EA01400021641B1EB1DC40E6
:100240000023C6E90043BDE8F0878B4208D9002EA1
:1002500000F0EA800021C6E900050846BDE8F08705
:10026000B3FA83F1002948D1AB4202D3824200F2B3
:10027000F880841A65EB030201209646002EE2D036
:10028000C6E9004EDFE702B9FFDEB2FA82F3002BC7
:1002900040F08E80881A0121170C1FFA82FEB0FBF5
:1002A000F7F507FB1500220C42EA00420EFB05F0B1
:1002B000904208D91CEB020205F1FF3802D29042AD
:1002C00000F2CC804546121AB2FBF7F007FB102271
:1002D0000EFB00FEA4B244EA0244A64508D91CEB7A
:1002E000040400F1FF3202D2A64500F2B4801046A9
:1002F000A4EB0E0440EA0540A0E7C1F120078B40C3
:1003000022FA07FC4CEA030C25FA07FA4FEA1C49CB
:10031000BAFBF9F88D4020FA07F309FB18AA1FFA77
:100320008CFE2B4300FA01F508FB0EF01C0C44EA8E
:100330000A44A04202FA01F20BD91CEB040408F1B2
:10034000FF3A80F08680A04240F28380A8F1020844
:100350006444241A98B2B4FBF9F309FB134403FB79
:100360000EFE40EA0444A64508D91CEB040403F140
:10037000FF306AD2A64568D9023B644443EA08408C
:10038000A0FB0293A4EB0E049C42C8469E4654D3A5
:1003900051D0002E67D0B5EB080364EB0E04CB40C0
:1003A00004FA07F71F43CC40C6E9007400214AE76E
:1003B00002FA03FCC3F12000C1409D4024FA00F082
:1003C0004FEA1C472843B1FBF7F507FB15111FFA4D
:1003D0008CFE020C42EA014205FB0EF1914204FA46
:1003E00003F408D91CEB020205F1FF382FD2914229
:1003F0002DD9023D6244521AB2FBF7F107FB1122DC
:1004000080B240EA024001FB0EF2824208D91CEBA6
:10041000000001F1FF3816D2824214D9023960443B
:10042000801A41EA05413AE7314630460BE771460A
:10043000E9E61046FEE64D45ABD2B9EB020863EBA8
:100440000C0E0138A5E74146EAE7034696E7454624
:10045000D1E7D0467DE76444023849E7023D624473
:1004600031E708460AE73146EDE600BF704700BFB6
:1004700080B500AF232000F0FFFB022000F03FF822
:10048000142000F0F9FB282000F039F8012000F0DA
:10049000F3FB0C2000F033F8012000F0EDFB00F03E
:1004A00011F9062000F02BF8012000F0E5FB00BF59
:1004B00080BD80B582B000AF0346FB7101220021F0
:1004C000012000F0CFFAFB791B09DBB21A460C21A0
:1004D000012000F065F900F005F9FB7903F00F0346
:1004E000DBB21A460C21012000F05AF900F0FAF8AC
:1004F000012000F0C1FB00BF0837BD4680BD80B5BC
:1005000082B000AF0346FB7100220021012000F001
:10051000A9FAFB791B09DBB21A460C21012000F075
:100520003FF900F0DFF8FB7903F00F03DBB21A4666
:100530000C21012000F034F900F0D4F8012000F083
:100540009BFB00BF0837BD4680BD80B584B000AFBF
:1005500078600023FB7309E0FB7B7A6813441B7807
:100560001846FFF7A6FFFB7B0133FB73FB7B7A6822
:1005700013441B78002BEFD100BF00BF1037BD46DE
:1005800080BD2DE9B04F86B000AFC7E902014FF042
:1005900001024FF00003C7E90423D7E90223134304
:1005A00038D13020FFF785FF58E0D7E9048942466B
:1005B0004B464FF000004FF00001990041EA927164
:1005C000900002460B4612EB080443EB0905231981
:1005D0003B6045EB05037B60D7E90045A046A94693
:1005E000D7E902014FF00A024FF00003FFF7C0FD08
:1005F00018EB020A49EB030BC7E904ABD7E9020188
:100600004FF00A024FF00003FFF7B2FD02460B461F
:10061000C7E90223D7E902231343C6D119E0D7E97A
:1006200004014FF00A024FF00003FFF7A1FDD3B21F
:100630003033DBB21846FFF73CFFD7E904014FF037
:100640000A024FF00003FFF793FD02460B46C7E98D
:100650000423D7E90423511E0B43E0D100BF183710
:10066000BD46BDE8B08F80B584B000AF03460A46F2
:10067000FB711346BB71FB79022B08D8FB79002B69
:1006800005D0BB79102B02D8BB79002B02D1802377
:10069000FB730CE0FB79012B03D1BB797F33FB7338
:1006A00005E0FB79022B02D1BB79413BFB73FB7B5D
:1006B0001846FFF724FF012000F0DEFA00BF1037D4
:1006C000BD4680BD80B500AF0120FFF718FF0120B7
:1006D00000F0D2FA0220FFF712FF012000F0CCFA5E
:1006E00000BF80BD80B500AF01220121012000F0D4
:1006F000B9F9012000F0C0FA00220121012000F028
:10070000B1F9012000F0B8FA00BF80BD80B582B019
:1007100000AFFF23FB7101233B7107237B7134E0A2
:100720007B7900221946012000F09CF90323BB715C
:100730001FE03A1DBB791946012000F0C5F93B794D
:10074000002B13D105E03A1DBB791946012000F0BA
:10075000BBF93B79002BF6D0BB79DA1E7B79073BDE
:100760000E4992000A4413441B78FB71BB79013394
:10077000BB71BB79062BDCD97B790122194601209C
:1007800000F070F97B7901337B717B790A2BC7D933
:10079000FB7918460837BD4680BD00BF0000002029
:1007A00080B483B000AF0346FB710B46BB711346A8
:1007B0007B71FB79124A52F82330DA68BB790F213A
:1007C00001FA03F3DB431846FB790D4951F8233056
:1007D0000240DA60FB790A4A52F82330DA68797904
:1007E000BB7901FA03F31846FB79054951F8233028
:1007F0000243DA6000BF0C37BD4680BC704700BFC3
:100800005000002080B582B000AF0023FB7123E0D0
:100810000023BB711AE0FB79002B02D0012B09D019
:1008200011E0BB79254AD25CB979FB79184600F012
:100830004DF808E0BB79224AD25CB979FB791846B9
:1008400000F044F800BFBB790133BB71BB790F2BBB
:10085000E1D9FB790133FB71FB79022BD8D9002355
:10086000FB7123E00023BB711AE0FB79002B02D05F
:10087000012B09D011E0BB79124AD25CB979FB791E
:10088000184600F0EFF808E0BB790F4AD25CB9795E
:10089000FB79184600F0E6F800BFBB790133BB7165
:1008A000BB790F2BE1D9FB790133FB71FB79022B6B
:1008B000D8D900BF00BF0837BD4680BD100000205A
:1008C00020000020300000204000002080B485B0CF
:1008D00000AF0346FB710B46BB7113467B71FB797E
:1008E000022B00F2B7807B791B11DBB203F001030E
:1008F000FB737B7923F010037B71BB79072B51D8F5
:10090000FB79574A52F823301A68BB799B000F21B4
:1009100001FA03F3DB431846FB79514951F82330C0
:1009200002401A60FB794E4A52F823301A687979EE
:10093000BB799B0001FA03F31846FB79484951F84B
:10094000233002431A607B79082B14D1FB7B002BE8
:1009500011D1FB79424A52F82330DA68BB79012180
:1009600001FA03F3DB431846FB793D4951F8233084
:100970000240DA606EE07B79082B6BD1FB7B012BA8
:1009800068D1FB79364A52F82330DA68BB79012105
:1009900001FA03F31846FB79314951F82330024339
:1009A000DA6057E0BB790F2B54D8BB79083BBB7199
:1009B000FB792B4A52F823305A68BB799B000F21F0
:1009C00001FA03F3DB431846FB79254951F823303C
:1009D00002405A60FB79224A52F823305A687979EA
:1009E000BB799B0001FA03F31846FB791C4951F8C7
:1009F000233002435A607B79082B14D1FB7B002BF8
:100A000011D1FB79164A52F82330DA68BB790121FB
:100A100001FA03F3DB431846FB79114951F82330FF
:100A20000240DA6016E07B79082B13D1FB7B012BA7
:100A300010D1FB790A4A52F82330DA68BB790121D8
:100A400001FA03F31846FB79054951F823300243B4
:100A5000DA60FFE700BF1437BD4680BC704700BFB7
:100A60005000002080B483B000AF0346FB710B46FA
:100A7000BB7113467B71FB79022B1DD8BB790F2B01
:100A80001AD87B79002B0CD0012B15D1BB79012210
:100A900002FA03F1FB790B4A52F823300A461A6135
:100AA0000AE0BB79012202FA03F1FB79054A52F808
:100AB00023300A465A6100BF00BF0C37BD4680BCD8
:100AC000704700BF5000002080B483B000AF0346E1
:100AD0003A60FB710B46BB71FB79022B12D8BB79D4
:100AE0000F2B0FD8FB790A4A52F823309B68BA794A
:100AF000012101FA02F21A40BB7922FA03F3DAB2B9
:100B00003B681A7000BF0C37BD4680BC704700BF01
:100B10005000002080B400AF1D4B1B6823F0F80389
:100B20001B4A43F080031360194B1B68184A43F4B7
:100B300080231360164B1B68154A43F480331360FF
:100B4000134B5B68124A43F001035360104B5B6820
:100B50000F4A23F0020353600D4B5B680C4A23F4E9
:100B6000404353600A4B5B68094A23F46053536067
:100B7000074B5B68064A23F4E0635360044B5B68F1
:100B8000034A23F0F003536000BFBD4680BC7047AA
:100B90000010024080B483B000AF03460A46FB71E8
:100BA0001346BB71FB791F2B1BD8BB79002B0CD0D4
:100BB000012B5AD12F4B5B69FA79012101FA02F21C
:100BC00011462C4A0B4353614FE02A4B5B69FA797B
:100BD000012101FA02F2D2431146264A0B40536129
:100BE00043E0FB793F2B1ED8FB79203BFB71BB799F
:100BF000002B0CD0012B38D11E4B9B69FA790121B7
:100C000001FA02F211461B4A0B4393612DE0194B86
:100C10009B69FA79012101FA02F2D2431146154A81
:100C20000B40936121E0FB795F2B1ED8FB79403BA1
:100C3000FB71BB79002B0CD0012B16D10D4BDB695E
:100C4000FA79012101FA02F211460A4A0B43D361F3
:100C50000BE0084BDB69FA79012101FA02F2D24379
:100C60001146044A0B40D36100BF00BF0C37BD469C
:100C700080BC70470010024080B485B000AF0346CE
:100C8000FB8001237B817B891A465201D21A5201D3
:100C900013447B810023FB810DE00023BB8103E033
:100CA00000BFBB890133BB81BA897B899A42F7D3E4
:100CB000FB890133FB81FA89FB889A42EDD300BF9F
:100CC00000BF1437BD4680BC7047000090B587B0A8
:100CD00000AF114B07F108040FCB07C423800F4A64
:100CE0003B4692E8030018600433198002330A0C73
:100CF0001A70FFF7E7FC07F108031846FFF725FC19
:100D000001210220FFF7AFFC3B461846FFF71DFC10
:100D100000BF1C37BD4690BD3810000848100008C1
:100D2000B0B586B000AFFFF7F5FE01212220FFF736
:100D300031FF01212320FFF72DFFFFF763FDFFF7B0
:100D400097FB00237B752D23BB7000233B7500238D
:100D5000FB600023BB6000237B600023FB70FFF778
:100D6000D5FC03467B707B78FF2BF8D0FA7D7B782F
:100D70009A420BD17B783D2B08D10023FB600023E6
:100D8000BB6000233B61FFF79DFCF9E03B7D012B3D
:100D900003D1FFF797FC00233B75FB78002B02D0B3
:100DA000012B5AD0ECE07B78FB757B78392B15D87A
:100DB0007B782F2B12D9FA6813469B0013445B00F3
:100DC000FB607A78FB681344303BFB607B78184605
:100DD000FFF76FFB7B6801337B603DE07B782D2B59
:100DE0000CD17B68002B09D1BB781846FFF761FB5B
:100DF00001237B757B6801337B602DE07B782A2B98
:100E000008D07B782F2B05D07B782B2B02D07B78DA
:100E10002D2B0ED17B68002B0BD07B781846FFF76B
:100E200048FB7B78BB750123FB707B6801337B60DB
:100E300012E07B786F2B0AD10023FB600023BB609C
:100E400000233B6100237B60FFF73CFC98E0FFF749
:100E50003DFF01233B7593E092E07B6801337B60AB
:100E60007B78FB757B78392B12D87B782F2B0FD9A9
:100E7000BA6813469B0013445B00BB607A78BB687A
:100E80001344303BBB607B781846FFF712FB76E0DB
:100E90007B782D2B08D1BB781846FFF70AFB7B7DAA
:100EA00083F001037B756AE07B783D2B55D10123EC
:100EB0003B757B781846FFF7FCFABB7D2A3B052B78
:100EC0002FD801A252F823F00D0F0008190F0008C7
:100ED000230F0008E10E0008230F0008010F00088F
:100EE000BA68FB689A4206D9BA68FB68D31A3B61B4
:100EF00001237B7515E0FA68BB68D31A3B6110E0EB
:100F0000FA68BB68B2FBF3F33B610AE0FB68BA68BE
:100F100002FB03F33B6104E0FA68BB6813443B61E6
:100F200000BF7B7D002B05D0BB781846FFF7C1FAC8
:100F300000237B753B6900221C4615462046294646
:100F4000FFF71FFB0023FB600023BB6000237B60D7
:100F50000023FB702B23BB7511E07B786F2B0CD12A
:100F60000023FB600023BB6000233B6100237B6008
:100F70000023FB70FFF7A6FB01E0FFF7A7FE00BF11
:100F8000EDE600BF0D488546AFF300800C480D49E3
:100F90000D4A002302E0D458C4500433C4188C42D4
:100FA000F9D30A4A0A4C002301E013600432A2423A
:100FB000FBD300F011F8FFF7B3FEFEE7005000206E
:100FC000000000205C000020601000085C00002091
:100FD00078000020FEE7000070B500260C4D0D4C97
:100FE000641BA410A64209D100F01AF800260A4D8D
:100FF0000A4C641BA410A64205D170BD55F8043BF1
:1010000098470136EEE755F8043B98470136F2E77A
:101010005810000858100008581000085C1000080C
:10102000F8B500BFF8BC08BC9E467047F8B500BFD5
:08103000F8BC08BC9E467047A5
:10103800496E76616C696420496E707574000000B1
:081048004572726F7221000075
:0810500050F1FF7F01000000D8
:041058005501000836
:04105C003101000856
:101060003738392F3435362A3132332D6F303D2B16
:1010700000000D04020202020A0A0A0A0202020227
:1010800002020218181818020202020402020202E6
:101090000000000101010100000000000101010148
:1010A0000000000101010100000000000101010138
:0C10B00000080140000C0140001001404D
:0400000508000F855B
:00000001FF
