:100000000C942A000C943F000C943F000C943F0089
:100010000C943F000C943F000C943F000C943F0064
:100020000C943F000C943F000C943F000C943F0054
:100030000C943F000C943F000C943F000C943F0044
:100040000C948A020C943F000C943F000C943F00E7
:100050000C943F0011241FBECFE5D8E0DEBFCDBF1A
:1000600010E0A0E6B0E0E8E8F7E002C005900D92ED
:10007000AE36B107D9F70E94E1010C94C2030C948B
:10008000000041E061E086E690E00E9494028FEC7F
:1000900097E00197F1F700C0000040E061E086E6DC
:1000A00090E00E9494028FEC97E00197F1F700C076
:1000B00000000895682F80E690E00E94B90241E0B8
:1000C00060E086E690E00E9494020E9441008FEC7E
:1000D00097E00197F1F700C000000895682F80E6CF
:1000E00090E00E94B90240E060E086E690E00E9465
:1000F00094020E9441008FEC97E00197F1F700C055
:10010000000008950F931F93CF938C01C0E003C0AC
:100110000E945A00CF5FF801EC0FF11D8081811120
:10012000F7CFCF911F910F9108952F923F924F9249
:100130005F926F927F928F929F92AF92BF92CF9277
:10014000DF92EF92FF920F931F93CF93DF93CDB780
:10015000DEB728970FB6F894DEBF0FBECDBF298358
:100160003A834B835C836D837E83382E292EA0E0F7
:100170000E94A70309F081C080E30E945A00CBC00F
:100180002F813885492D582D672D762D852D942D5D
:1001900001E00E948503822E932E48875F83B62F4D
:1001A000A72FF82FE92F02E00E948503A22EB32E7D
:1001B000C42ED52EE62EF72E082F192F282D392DD7
:1001C00048855F816B2F7A2F8F2F9E2F0E949E0371
:1001D00028873F83942E852E762E672E582E492E03
:1001E0000F2EFAE0AF2EF02DB12CC12CD12CE12C2A
:1001F000F12C00E010E029813A814B815C816D8116
:100200007E81832D922D0E942603A22EB32EC42E12
:10021000D52EE62EF72E082F192F28853F81492D40
:10022000582D672D762D852D942D0E949E032F83AA
:100230003887942E852E762E672E582E492E0F2E17
:10024000FAE0AF2EF02DB12CC12CD12CE12CF12CE9
:1002500000E010E029813A814B815C816D817E81D3
:10026000832D922D0E94280329833A834B835C833C
:100270006D837E83382E292E09C081E01886912C4B
:10028000812C712C612C512C412C8F8329813A8136
:100290004B815C816D817E81832D922DA0E00E9437
:1002A000A70309F06DCF2BC00F2EFAE0AF2EF02D73
:1002B000B12CC12CD12CE12CF12C00E010E02F81CD
:1002C0003885492D582D672D762D852D942D0E942A
:1002D000260380E3820F0E945A002F813885492D22
:1002E000582D672D762D852D942D0E9428032F8360
:1002F0003887942E852E762E672E582E492E2F81E4
:100300003885492D582D672D762D852D942DA1E00A
:100310000E94A70349F628960FB6F894DEBF0FBED9
:10032000CDBFDF91CF911F910F91FF90EF90DF90A4
:10033000CF90BF90AF909F908F907F906F905F9085
:100340004F903F902F90089581E00E946E0082E0D0
:100350000E946E008FE99FE00197F1F700C0000056
:1003600008952FEB8AED90E0215080409040E1F716
:1003700000C0000082E00E946E008FEC97E00197C1
:10038000F1F700C0000088E30E946E008FEC97E058
:100390000197F1F700C000008CE00E946E008FEC26
:1003A00097E00197F1F700C000000E94A40186E0E9
:1003B0000E946E008FEC97E00197F1F700C00000FB
:1003C0000895CF93DF9300D000D01F92CDB7DEB752
:1003D0000E94C0020E942B020E94B1018DE696E7A6
:1003E0009C838B831D82BE016F5F7F4F80E00E94E4
:1003F000490289819A8108171907A9F30E94A4016B
:1004000049815A810F2EF8E8AF2EF02D0F2EF3E11F
:10041000BF2EF02DC12CD12CE12CF12C00E010E0EE
:10042000242F352F40E050E060E070E080E090E065
:100430000E94CD02AA24AA940F2EF3E0BF2EF02D25
:100440000E9428030E949500CE0103960E9482001C
:1004500009811A81C8CF87B18F7D87B987B1806440
:1004600087B987B18F7787B987B1807E87B987B120
:1004700087B986B18F7D86B986B1887F86B986B106
:10048000856086B986B1806886B986B1886086B98C
:10049000089596B196FB222720F996FF04C010928A
:1004A0006C0090E035C0211132C090916D0098131E
:1004B00012C020916C0021110EC024B185B190E0D2
:1004C000982F8827822BFB019183808381E0809382
:1004D0006C0091E01DC098130BC090916C0091309E
:1004E00039F486B1806486B910926C0090E010C037
:1004F00090916C00992361F080936D00883020F416
:1005000097B1907E892B87B986B1806486B90895AA
:10051000892F08951F920F920FB60F9211240F90FA
:100520000FBE0F901F901895413081F4DC01129698
:10053000ED91FC911397208181E090E002C0880F3B
:10054000991F6A95E2F7822B80830895411110C0AC
:10055000DC011296ED91FC911397208181E090E0EF
:1005600002C0880F991F6A95E2F7809582238083E5
:100570000895DC011296ED91FC9113976083089524
:100580009EEF9ABB83E087BB27E024BB2FEF21BB04
:100590009BBB88BB15BA12BA0895DF93CF931F9304
:1005A0000F939A9DF02D219FF00D8B9DF00D8A9D4C
:1005B000E02DF10D039FF00D029FE00DF11D4E9D0A
:1005C000E00DF11D5E9DF00D4F9DF00D7F936F933B
:1005D000BF92AF925F934F93D5010E94B3038B01FB
:1005E000AC01D7010E94B303EB01E80FF91FD6015C
:1005F0000E941D032F913F91D6010E94B303C60FA5
:10060000D71FE81FF91FAF91BF910E941D032F91C3
:100610003F910E94B303C60FD71FE81FF91FD601F1
:100620000E94B303E60FF71F9801BE01CF0111240A
:100630000F911F91CF91DF9108950E94B303460F50
:10064000571FC81FD91F08F431960895689401C038
:10065000E8948F929F92CF93DF930E943403DF91AF
:10066000CF919F908F90089588249924F401E401FC
:10067000B0E49F93AA279A158B049C04ED05FE0510
:10068000CF05D007A10798F4AD2FDC2FCF2FFE2F79
:10069000E92D982C892E982F872F762F652F542F90
:1006A000432F322F2227B85031F7BF9127C01B2E7E
:1006B000BF91BB27220F331F441F551F661F771F93
:1006C000881F991F881C991CEE1FFF1FCC1FDD1F60
:1006D000AA1FBB1F8A149B04EC05FD05CE05DF0590
:1006E000A007B10748F08A189B08EC09FD09CE095C
:1006F000DF09A00BB10B21601A94E1F62EF49401EE
:10070000AF01BE01CD01000C08950F93083090F0A9
:10071000982F872F762F652F542F432F322F222784
:100720000850F4CF220F331F441F551F661F771F39
:10073000881F991F0A95B2F70F9108952A0D3B1D46
:100740004C1D5D1D6E1D7F1D801F911F089500248F
:10075000A7FD00942A173005400550056005700577
:10076000800590050895A29FB001B39FC001A39F8B
:10077000700D811D1124911DB29F700D811D1124DA
:08078000911D0895F894FFCFCC
:0E07880031003200300034003500330001FF34
:00000001FF
