S012000043616C63756C61746F722E7372656308
S11300000C942A000C9447000C9447000C9447006D
S11300100C9447000C9447000C9447000C94470040
S11300200C9447000C9447000C9447000C94470030
S11300300C9447000C9447000C9447000C94470020
S11300400C9447000C9447000C9447000C94470010
S11300500C94470011241FBECFE5D8E0DEBFCDBF0E
S113006010E0A0E6B0E0E4E6FBE002C005900D92EB
S1130070AA37B107D9F720E0AAE7B0E001C01D9282
S1130080AB38B207E1F70E9484000C94B0050C94DD
S11300900000E0918A00E53051F0EF5FE0938A00C0
S11300A0F0E0EE0FFF1FE058FF4F91838083089527
S11300B0E0917F00E53039F0EF5FE0937F00F0E0FE
S11300C0E658FF4F80830895A0E8B0E01A969C910B
S11300D01A97E92FF0E0EE0FFF1FE058FF4F208141
S11300E0318191501A969C93C9010895AAE7B0E012
S11300F015969C911597E92FF0E0E658FF4F808103
S1130100915015969C930895CF93DF93CDB7DEB7A6
S11301102A970FB6F894DEBF0FBECDBF0E943803F6
S11301200E9489018FEF80938A0080937F00A12C25
S1130130B12CE12CF12C0E949501182F8F3F09F46A
S113014097C08D3309F494C081E0A816B10461F41A
S11301500E942B030E9464005C010E943002C501CE
S11301600E944900A12CB12C812F0E94F90180ED3D
S1130170810F8A3088F4C701880F991FEE0CFF1C89
S1130180EE0CFF1CEE0CFF1CE80EF91EE10EF11C38
S113019080E3E81AF108CFCF1B3231F01D3221F091
S11301A01A3211F01F3239F6C7010E944900E0915A
S11301B07F00F0E0E658FF4F80818A3211F08F32E1
S11301C0C9F40E947600082F0E9464007C010E94FA
S11301D064000A3241F4E89EB001E99E700DF89E75
S11301E0700D112403C0B7010E940005CB010E94C9
S11301F0490014C08D3291F41B3281F40E947600C0
S1130200082F0E9464007C010E9464000D3219F4DE
S11302104C018E189F08C4010E9449001B3249F00A
S113022018F41A3269F021C01D3289F01F32B1F07E
S11302301CC0812F90E00E945800E12CF12C7BCF50
S1130240812F90E00E945800E12CF12C74CF812F73
S113025090E00E945800E12CF12C6DCF812F90E0AA
S11302600E945800E12CF12C66CFE12CF12C63CFD5
S11302701D3309F060CFC7010E94490027C00E94C6
S113028064007C010E9464001B3249F018F41A32A5
S113029051F019C01D3279F01F3289F014C0670182
S11302A0C80ED91E10C0E89E6001E99ED00CF89ECD
S11302B0D00C112408C06C01CE18DF0804C0B701AB
S11302C00E9400056B01C6010E9449000E9476004D
S11302D0182F8111D4CF0E9464007C0161E082E078
S11302E00E940A038AE0E0E7F0E0DE011196019043
S11302F00D928A95E1F7CE0101960E941D02C70175
S11303000E943002C7010E944900AA24A394B12C80
S113031012CF80B78B7F80BF60EF84E40E942A04F1
S11303206FEF84E40E94B5040895FF920F931F9326
S1130330CF93DF931F92CDB7DEB781E0898304E0CA
S1130340FF24FA9435C040E0602F84E40E943D0409
S113035010E026C0AE014F5F5F4F612F84E40E941E
S1130360C8048981882341F01AC0AE014F5F5F4FF2
S1130370612F84E40E94C80489818823B1F3812F0A
S113038090E0202F30E024503109880F991F880F06
S1130390991F805A9F4FFC01E20FF31FF0801F5FEB
S11303A01430C0F241E0602F84E40E943D040F5FEA
S11303B0083048F28F2D0F90DF91CF911F910F914C
S11303C0FF90089541E062E082E40E943D048FECD6
S11303D097E00197F1F700C0000040E062E082E49A
S11303E00E943D048FEC97E00197F1F700C00000F4
S11303F00895682F81E40E94B50441E060E082E43E
S11304000E943D040E94E2018FEC97E00197F1F70E
S113041000C000000895682F81E40E94B50440E004
S113042060E082E40E943D040E94E2018FEC97E0C8
S11304300197F1F700C0000008950F931F93CF9325
S11304408C01C0E003C00E94F901CF5FF801EC0FFA
S1130450F11D80818111F7CFCF911F910F910895E4
S11304602F923F924F925F926F927F928F929F92C0
S1130470AF92BF92CF92DF92EF92FF920F931F93AE
S1130480CF93DF93FC01892B09F06EC080E30E94B7
S1130490F901ADC02C2F3D2F492D582D672D762DF8
S11304A0852D942D01E00E948205622E732E842EE8
S11304B0952ED62FC72FB82FA92F02E00E948205B0
S11304C0A22EB32EC42ED52EE62EF72E082F192FCA
S11304D0262D372D482D592D6D2F7C2F8B2F9A2F9C
S11304E00E949B05E22EF32E062F172FD82FC92F1B
S11304F09F01ADECBCEC0E941405969587959695EA
S11305008795969587951C01220C331C880F991F9B
S1130510880F991F880F991F820D931D281B390B73
S113052019012E2D3F2D602F712F8D2F9C2FA22C62
S1130530B32CC12CD12CE12CF12C00E010E00E9452
S11305409B05C22FD32F942E852E762E672E582EE0
S1130550492E9F010E941405FC01F695E795F69536
S1130560E795F695E79508C0C1E0D0E0912C812C81
S1130570712C612C512C412C309709F08BCF2BC05E
S11305800F2EFAE0AF2EF02DB12CC12CD12CE12C82
S1130590F12C00E010E02C2F3D2F492D582D672D14
S11305A0762D852D942D0E94230580E3820F0E94D1
S11305B0F9012C2F3D2F492D582D672D762D852D92
S11305C0942D0E942505C22FD32F942E852E762E8E
S11305D0672E582E492E2C2F3D2F492D582D672D2F
S11305E0762D852D942DA1E00E94A40549F6DF9176
S11305F0CF911F910F91FF90EF90DF90CF90BF901C
S1130600AF909F908F907F906F905F904F903F90AE
S11306102F9008959FEF980F923070F4613170F429
S1130620662371F0813019F42FE7260F0AC0823057
S113063041F42FEB260F05C020E803C020E801C0D9
S113064020E8822F0E940B028FEC97E00197F1F7CC
S113065000C00000089581E00E940B0282E00E9425
S11306600B028FE99FE00197F1F700C000000895A5
S11306702FEB8AED90E0215080409040E1F700C0DC
S113068000006FEF81E40E94F30341E060E082E444
S11306900E947B0341E061E082E40E947B0341E02D
S11306A062E082E40E947B0382E00E940B028FECF2
S11306B097E00197F1F700C0000088E30E940B0265
S11306C08FEC97E00197F1F700C000008EE00E94E4
S11306D00B028FEC97E00197F1F700C000000E9435
S11306E02B0386E00E940B028FEC97E00197F1F751
S11306F000C000000895823429F118F4813439F0DF
S113070008958334D1F1843409F452C008954130FA
S113071059F42AB381E090E002C0880F991F6A95CA
S1130720E2F7822B8ABB089541115CC02AB381E0B1
S113073090E002C0880F991F6A95E2F780958223A2
S11307408ABB0895413059F427B381E090E002C098
S1130750880F991F6A95E2F7822B87BB0895411190
S113076041C027B381E090E002C0880F991F6A95C9
S1130770E2F78095822387BB0895413059F424B36E
S113078081E090E002C0880F991F6A95E2F7822BFE
S113079084BB0895411126C024B381E090E002C0D7
S11307A0880F991F6A95E2F78095822384BB089588
S11307B0413059F421B381E090E002C0880F991FC1
S11307C06A95E2F7822B81BB089541110BC021B3D6
S11307D081E090E002C0880F991F6A95E2F7809546
S11307E0822381BB08958234A1F018F4813431F05E
S11307F008958334C9F0843411F108956F3F21F4CE
S11308008AB38FEF8ABB0895611123C08AB31ABAE1
S113081008956F3F21F487B38FEF87BB089561116B
S113082018C087B317BA08956F3F21F484B38FEFCC
S113083084BB089561110DC084B314BA08956F3F49
S113084021F481B38FEF81BB0895611102C081B39C
S113085011BA0895823459F018F4813431F00895AE
S1130860833439F0843439F008956ABB089567BB42
S1130870089564BB089561BB0895823429F118F486
S1130880813439F008958334D1F1843409F452C0A9
S11308900895413059F42BB381E090E002C0880FF1
S11308A0991F6A95E2F7822B8BBB089541115CC0B6
S11308B02BB381E090E002C0880F991F6A95E2F79C
S11308C0809582238BBB0895413059F428B381E08D
S11308D090E002C0880F991F6A95E2F7822B88BBCB
S11308E00895411141C028B381E090E002C0880F0F
S11308F0991F6A95E2F78095822388BB0895413059
S113090059F425B381E090E002C0880F991F6A95DD
S1130910E2F7822B85BB0895411126C025B381E0FF
S113092090E002C0880F991F6A95E2F780958223B0
S113093085BB0895413059F422B381E090E002C0B0
S1130940880F991F6A95E2F7822B82BB08954111A3
S11309500BC022B381E090E002C0880F991F6A9512
S1130960E2F78095822382BB0895823459F018F40B
S1130970813431F00895833439F0843439F00895A2
S11309806BBB089568BB089565BB089562BB089569
S11309908234A9F018F4813431F008958334D1F00D
S11309A0843419F1089529B381E090E002C0880FDE
S11309B0991F6A95E2F78223FA018083089586B32A
S11309C090E002C0959587956A95E2F78170FA01E7
S11309D08083089583B390E002C0959587956A95C6
S11309E0E2F78170FA018083089580B390E002C039
S11309F0959587956A95E2F78170FA018083089549
S1130A00AA1BBB1B51E107C0AA1FBB1FA617B70730
S1130A1010F0A61BB70B881F991F5A95A9F780954C
S1130A209095BC01CD010895A29FB001B39FC00170
S1130A30A39F700D811D1124911DB29F700D811D06
S1130A401124911D0895689401C0E8948F929F9297
S1130A50CF93DF930E943105DF91CF919F908F90C8
S1130A60089588249924F401E401B0E49F93AA270B
S1130A709A158B049C04ED05FE05CF05D007A1074C
S1130A8098F4AD2FDC2FCF2FFE2FE92D982C892E33
S1130A90982F872F762F652F542F432F322F2227FD
S1130AA0B85031F7BF9127C01B2EBF91BB27220F2F
S1130AB0331F441F551F661F771F881F991F881CEB
S1130AC0991CEE1FFF1FCC1FDD1FAA1FBB1F8A141A
S1130AD09B04EC05FD05CE05DF05A007B10748F032
S1130AE08A189B08EC09FD09CE09DF09A00BB10B9C
S1130AF021601A94E1F62EF49401AF01BE01CD01F8
S1130B00000C08950F93083090F0982F872F762FBC
S1130B10652F542F432F322F22270850F4CF220F52
S1130B20331F441F551F661F771F881F991F0A957F
S1130B30B2F70F9108952A0D3B1D4C1D5D1D6E1DCE
S1130B407F1D801F911F08950024A7FD00942A177C
S1130B503005400550056005700580059005089531
S1070B60F894FFCF33
S1130B643738392F3435362A3132332D6F303D2B13
S10D0B74526573756C74203A20007A
S9030000FC
