S0160000746573745F6C63645F346D6F64652E7372656384
S11300000C9433000C9450000C9450000C94500049
S11300100C9450000C9450000C9450000C9450001C
S11300200C9450000C9450000C9466020C943D0205
S11300300C9450000C9454030C9450000C948303BF
S11300400C94E2010C9450000C9450000C94500059
S11300500C9450002A012F01340139013E0148015A
S11300604D015201570111241FBECFE5D8E0DEBF78
S1130070CDBF10E0A0E6B0E0EAECF7E002C00590E6
S11300800D92AE37B107D9F720E0AEE7B0E001C07A
S11300901D92A339B207E1F70E94D3000C94E30345
S11300A00C940000FC018381882349F0813069F4B9
S11300B041E06281808191810E94EC01089540E0D9
S11300C06281808191810E94EC010895FC01838109
S11300D0882349F0813069F440E062818081918114
S11300E00E94EC01089541E06281808191810E9427
S11300F0EC0108950F931F93CF93DF9300D0CDB7F6
S1130100DEB78B011A821982BE016F5F7F4F0E9496
S1130110B001882379F029813A81A8E8B3E10E94EB
S1130120D40320E038E240E050E00E94AC03F80140
S1130130208303C08FEFF80180830F900F90DF912D
S1130140CF911F910F91089522E040E062E084E096
S11301500E948F028FE19EE49BBD8ABD87EE93E0EF
S113016099BD88BD0895282F30E0A8EEB3E00E9421
S1130170D40324EB30E040E050E00E94AC0329516A
S11301803C4F39BD28BD0895809180008F5F8093D6
S1130190800080917E00882329F080917F008F5F0A
S11301A080937F0008950E9411020E9438030E94E8
S11301B092010E941E020E94A4000E94500384EC3B
S11301C090E00E9438020E9434020E942D0278942A
S11301D0C0E060E970E080E00E947A0080919000C5
S11301E09FEF980F9E3F10F480938A0080918000C7
S11301F0843188F010928000C43008F0C0E0EC2F05
S1130200F0E0E657FF4F808180938F00882319F038
S11302100E944A03CF5F62E970E081E00E947A00A5
S1130220809192009FEF980F9E3F10F480938B0073
S113023080918100882309F440C0E09181008E2FD1
S113024090E0FC013197E930F105A8F5E65DFF4F38
S11302500C94CE038CE690E00E9452002CC088E6F9
S113026090E00E94520027C084E690E00E94520071
S113027022C080E690E00E9452001DC010927F00D0
S113028081E080937E008AE590E00E94B30013C071
S11302908CE690E00E9466000EC088E690E00E9422
S11302A0660009C084E690E00E94660004C080E60F
S11302B090E00E946600109281006EE870E082E097
S11302C00E947A0080918E009FEF980F9E3F10F459
S11302D080938C0080917F008C35A8F010927E0072
S11302E080E090E00E94B30041E060E080E790E0AD
S11302F00E94EC0100C000C0000040E060E080E724
S113030090E00E94EC0161E970E083E00E947A00D1
S1130310809191009FEF980F9E3F08F05ACF8093F1
S11303208D0057CF87B18F7D87B987B1806487B936
S113033087B18F7787B987B1807E87B987B187B94D
S113034086B18F7D86B986B1887F86B986B185608E
S113035086B986B1806886B986B1886086B9089501
S113036096B196FB222720F996FF04C010927C00D8
S113037090E026C0211123C090917D0098130EC0F7
S113038024B185B190E0982F8827822BFB019183BB
S1130390808381E080937C0091E012C090917C0086
S11303A0992371F080937D00883020F497B1907E7A
S11303B0892B87B986B1806486B910927C00089530
S11303C0892F08951F920F920FB60F9211240F9048
S11303D00FBE0F901F901895413081F4DC011296E6
S11303E0ED91FC911397208181E090E002C0880F89
S11303F0991F6A95E2F7822B80830895411110C0FA
S1130400DC011296ED91FC911397208181E090E03C
S113041002C0880F991F6A95E2F780958223808332
S1130420089580EF8ABB8FEF87BB84BB8EEF81BBBF
S11304301BBA82E088BB15BA82BB089583B7877F55
S113044083BF83B78F7B83BF83B78F7D83BF83B71E
S11304508F7E83BF12BE1CBE089583B7887F83BF7F
S113046083B7856083BF089589B7816089BF089584
S1130470909385008093840008951F920F920FB685
S11304800F9211242F933F934F935F936F937F9316
S11304908F939F93AF93BF93EF93FF93E091840067
S11304A0F0918500309709F00995FF91EF91BF9184
S11304B0AF919F918F917F916F915F914F913F91F8
S11304C02F910F900FBE0F901F9018951F920F92AF
S11304D00FB60F9211242F933F934F935F936F9313
S11304E07F938F939F93AF93BF93EF93FF93E09189
S11304F08200F0918300309709F00995FF91EF9104
S1130500BF91AF919F918F917F916F915F914F9127
S11305103F912F910F900FBE0F901F90189582302E
S113052039F128F4882351F08130A9F054C0843083
S1130530C9F158F1853009F442C04DC08FB58E7FA2
S11305408FBD8FB58D7F8FBD8EB5877F8EBD8EB5E8
S11305508F7E8EBD40C08FB58E7F8FBD8FB58D7F52
S11305608FBD8EB588608EBD8EB580618EBD33C063
S11305708FB58E7F8FBD8FB58D7F8FBD8EB5886013
S11305808EBD8EB58F7E8EBD26C08FB58E7F8FBDFE
S11305908FB582608FBD8EB588608EBD8EB580614B
S11305A08EBD19C08FB581608FBD8FB582608FBD40
S11305B08EB588608EBD8EB580618EBD0CC08FB542
S11305C081608FBD8FB582608FBD8EB5877F8EBDF4
S11305D08EB580618EBD413069F028F0423089F0DB
S11305E04330B1F01BC08FB58F7B8FBD8FB58F7734
S11305F08FBD14C08FB580648FBD8FB58F778FBDCD
S11306000DC08FB58F7B8FBD8FB580688FBD06C041
S11306108FB580648FBD8FB580688FBD213069F040
S113062028F0223089F02330B1F01BC08FB58F7EC3
S11306308FBD8FB58F7D8FBD14C08FB580618FBD89
S11306408FB58F7D8FBD0DC08FB58F7E8FBD8FB55C
S113065080628FBD06C08FB580618FBD8FB580620B
S11306608FBD8EB5887F8EBD8EB5682B6EBD089507
S11306708BB18D7F8BB98AB18B7F8AB986E880BDB7
S113068010BC89E189B98AB180618AB98AB188606C
S11306908AB908955D9902C05F9BFCCF8CB9089517
S11306A08AB180688AB908951F920F920FB60F928B
S11306B011242F933F934F935F936F937F938F9363
S11306C09F93AF93BF93EF93FF938CB190E090937C
S11306D0820080938100E0918800F0918900309736
S11306E009F00995FF91EF91BF91AF919F918F917F
S11306F07F916F915F914F913F912F910F900FBE1A
S11307000F901F9018951F920F920FB60F921124FD
S11307102F933F934F935F936F937F938F939F9305
S1130720AF93BF93EF93FF93E0918600F09187001E
S1130730309709F00995FF91EF91BF91AF919F9187
S11307408F917F916F915F914F913F912F910F9076
S11307500FBE0F901F901895A1E21A2EAA1BBB1B67
S1130760FD010DC0AA1FBB1FEE1FFF1FA217B30779
S1130770E407F50720F0A21BB30BE40BF50B661F8F
S1130780771F881F991F1A9469F760957095809553
S113079090959B01AC01BD01CF010895EE0FFF1FA1
S11307A00590F491E02D0994A29FB001B39FC0017C
S11307B0A39F700D811D1124911DB29F700D811D89
S10D07C01124911D0895F894FFCF51
S11307CA7600070176000601760005017600040129
S11107DA3700380036003A003B00390001FFBA
S9030000FC
