:020000040800F2
:10000000005000206D120008BD120008BD1200084B
:10001000BD120008BD120008BD120008000000005B
:10002000000000000000000000000000BD120008F9
:10003000BD12000800000000BD120008C90E000833
:10004000BD120008BD120008BD120008BD12000854
:10005000BD120008BD1200086508000889080008E4
:10006000AD080008D1080008F5080008A10700083D
:10007000BD070008D9070008F507000811080008A7
:100080002D08000849080008BD120008BD1200082C
:10009000BD120008BD120008BD12000819090008B1
:1000A000BD120008250F0008BD120008BD1200088F
:1000B000BD120008BD120008BD120008BD120008E4
:1000C000BD120008BD120008BD120008BD120008D4
:1000D000BD120008510F00087D0F0008A90F00088D
:1000E00089090008BD12000800000000BD120008C8
:1000F000BD120008BD120008BD120008BD120008A4
:10010000BD120008BD120008BD120008BD12000893
:10011000BD120008BD120008BD120008BD12000883
:10012000BD120008BD120008BD120008BD12000873
:1001300010B5054C237833B9044B13B10448AFF321
:1001400000800123237010BD5C000020000000002F
:100150000813000808B5034B1BB103490348AFF36C
:10016000008008BD000000006000002008130008A7
:1001700053B94AB9002908BF00281CBF4FF0FF310E
:100180004FF0FF3000F072B9ADF1080C6DE904CE0C
:1001900000F006F8DDF804E0DDE9022304B0704762
:1001A0002DE9F047089E0D4604468E46002B4CD1A3
:1001B0008A42944667D9B2FA82F353B102FA03FC39
:1001C000C3F1200201FA03FE20FA02F242EA0E0E07
:1001D0009C404FEA1C47BEFBF7F11FFA8CF507FB6A
:1001E00011EE01FB05F0220C42EA0E4290420AD9C0
:1001F0001CEB020201F1FF3E80F01981904240F2B7
:10020000168102396244121AB2FBF7F007FB102282
:1002100000FB05F5A4B244EA0244A5420AD91CEB4E
:10022000040400F1FF3280F00481A54240F2018114
:100230006444023840EA01400021641B1EB1DC40E6
:100240000023C6E90043BDE8F0878B4208D9002EA1
:1002500000F0EA800021C6E900050846BDE8F08705
:10026000B3FA83F1002948D1AB4202D3824200F2B3
:10027000F880841A65EB030201209646002EE2D036
:10028000C6E9004EDFE702B9FFDEB2FA82F3002BC7
:1002900040F08E80881A0121170C1FFA82FEB0FBF5
:1002A000F7F507FB1500220C42EA00420EFB05F0B1
:1002B000904208D91CEB020205F1FF3802D29042AD
:1002C00000F2CC804546121AB2FBF7F007FB102271
:1002D0000EFB00FEA4B244EA0244A64508D91CEB7A
:1002E000040400F1FF3202D2A64500F2B4801046A9
:1002F000A4EB0E0440EA0540A0E7C1F120078B40C3
:1003000022FA07FC4CEA030C25FA07FA4FEA1C49CB
:10031000BAFBF9F88D4020FA07F309FB18AA1FFA77
:100320008CFE2B4300FA01F508FB0EF01C0C44EA8E
:100330000A44A04202FA01F20BD91CEB040408F1B2
:10034000FF3A80F08680A04240F28380A8F1020844
:100350006444241A98B2B4FBF9F309FB134403FB79
:100360000EFE40EA0444A64508D91CEB040403F140
:10037000FF306AD2A64568D9023B644443EA08408C
:10038000A0FB0293A4EB0E049C42C8469E4654D3A5
:1003900051D0002E67D0B5EB080364EB0E04CB40C0
:1003A00004FA07F71F43CC40C6E9007400214AE76E
:1003B00002FA03FCC3F12000C1409D4024FA00F082
:1003C0004FEA1C472843B1FBF7F507FB15111FFA4D
:1003D0008CFE020C42EA014205FB0EF1914204FA46
:1003E00003F408D91CEB020205F1FF382FD2914229
:1003F0002DD9023D6244521AB2FBF7F107FB1122DC
:1004000080B240EA024001FB0EF2824208D91CEBA6
:10041000000001F1FF3816D2824214D9023960443B
:10042000801A41EA05413AE7314630460BE771460A
:10043000E9E61046FEE64D45ABD2B9EB020863EBA8
:100440000C0E0138A5E74146EAE7034696E7454624
:10045000D1E7D0467DE76444023849E7023D624473
:1004600031E708460AE73146EDE600BF704700BFB6
:1004700080B500AF232000F0ADFD022000F03FF872
:10048000142000F0A7FD282000F039F8012000F02A
:10049000A1FD0C2000F033F8012000F09BFD00F0DE
:1004A00011F9062000F02BF8012000F093FD00BFA9
:1004B00080BD80B582B000AF0346FB7101220021F0
:1004C000012000F0F7FBFB791B09DBB21A460C2177
:1004D000012000F08DFA00F005F9FB7903F00F031D
:1004E000DBB21A460C21012000F082FA00F0FAF883
:1004F000012000F06FFD00BF0837BD4680BD80B50C
:1005000082B000AF0346FB7100220021012000F001
:10051000D1FBFB791B09DBB21A460C21012000F04C
:1005200067FA00F0DFF8FB7903F00F03DBB21A463D
:100530000C21012000F05CFA00F0D4F8012000F05A
:1005400049FD00BF0837BD4680BD80B584B000AF0F
:1005500078600023FB7309E0FB7B7A6813441B7807
:100560001846FFF7A6FFFB7B0133FB73FB7B7A6822
:1005700013441B78002BEFD100BF00BF1037BD46DE
:1005800080BD2DE9B04F86B000AFC7E902014FF042
:1005900001024FF00003C7E90423D7E90223134304
:1005A00038D13020FFF785FF58E0D7E9048942466B
:1005B0004B464FF000004FF00001990041EA927164
:1005C000900002460B4612EB080443EB0905231981
:1005D0003B6045EB05037B60D7E90045A046A94693
:1005E000D7E902014FF00A024FF00003FFF7C0FD08
:1005F00018EB020A49EB030BC7E904ABD7E9020188
:100600004FF00A024FF00003FFF7B2FD02460B461F
:10061000C7E90223D7E902231343C6D119E0D7E97A
:1006200004014FF00A024FF00003FFF7A1FDD3B21F
:100630003033DBB21846FFF73CFFD7E904014FF037
:100640000A024FF00003FFF793FD02460B46C7E98D
:100650000423D7E90423511E0B43E0D100BF183710
:10066000BD46BDE8B08F80B584B000AF03460A46F2
:10067000FB711346BB71FB79022B08D8FB79002B69
:1006800005D0BB79102B02D8BB79002B02D1802377
:10069000FB730CE0FB79012B03D1BB797F33FB7338
:1006A00005E0FB79022B02D1BB79413BFB73FB7B5D
:1006B0001846FFF724FF012000F08CFC00BF103724
:1006C000BD4680BD80B500AF0120FFF718FF0120B7
:1006D00000F080FC0220FFF712FF012000F07AFCFE
:1006E00000BF80BD80B500AF01220121012000F0D4
:1006F000E1FA012000F06EFC00220121012000F04F
:10070000D9FA012000F066FC00BF80BD80B582B040
:1007100000AFFF23FB7101233B7107237B7134E0A2
:100720007B7900221946012000F0C4FA0323BB7133
:100730001FE03A1DBB791946012000F0EDFA3B7924
:10074000002B13D105E03A1DBB791946012000F0BA
:10075000E3FA3B79002BF6D0BB79DA1E7B79073BB5
:100760000E4992000A4413441B78FB71BB79013394
:10077000BB71BB79062BDCD97B790122194601209C
:1007800000F098FA7B7901337B717B790A2BC7D90A
:10079000FB7918460837BD4680BD00BF0000002029
:1007A00080B500AF044B1B68002B02D0024B1B68C6
:1007B000984700BF80BD00BF7800002080B500AF23
:1007C000044B5B68002B02D0024B5B68984700BF6C
:1007D00080BD00BF7800002080B500AF044B9B684F
:1007E000002B02D0024B9B68984700BF80BD00BF22
:1007F0007800002080B500AF044BDB68002B02D0EE
:10080000024BDB68984700BF80BD00BF7800002026
:1008100080B500AF044B1B69002B02D0024B1B6953
:10082000984700BF80BD00BF7800002080B500AFB2
:10083000044B5B69002B02D0024B5B69984700BFF9
:1008400080BD00BF7800002080B500AF044B9B69DD
:10085000002B02D0024B9B69984700BF80BD00BFB0
:100860007800002080B500AF054B01225A61054B8E
:100870001B68002B02D0034B1B68984700BF80BD4C
:10088000000401409400002080B500AF054B022217
:100890005A61054B5B68002B02D0034B5B6898479D
:1008A00000BF80BD000401409400002080B500AF6F
:1008B000054B04225A61054B9B68002B02D0034B69
:1008C0009B68984700BF80BD000401409400002051
:1008D00080B500AF054B08225A61054BDB68002B41
:1008E00002D0034BDB68984700BF80BD0004014085
:1008F0009400002080B500AF054B10225A61054BD3
:100900001B69002B02D0034B1B69984700BF80BDB9
:10091000000401409400002080B582B000AF0523A0
:10092000FB7124E0164B5A69FB7922FA03F303F0BA
:100930000103012B18D1124B1A68FB7922FA03F339
:1009400003F00103012B0FD1FB7901229A400C4BDC
:100950005A61FB790B4A52F82330002B04D0FB7903
:10096000084A52F823309847FB790133FB71FB7931
:10097000092BD7D900BF00BF0837BD4680BD00BFD7
:10098000000401409400002080B582B000AF0A232B
:10099000FB7120E0144B5A69FB7922FA03F303F050
:1009A0000103012B14D1104B5B69FA79012101FA83
:1009B00002F211460C4A0B435361FB790B4A52F881
:1009C0002330002B04D0FB79084A52F82330984793
:1009D000FB790133FB71FB790F2BDBD900BF00BF23
:1009E0000837BD4680BD00BF0004014094000020D0
:1009F00080B483B000AF0346FB710B46BB71134656
:100A00007B71FB79124A52F82330DA68BB790F21E7
:100A100001FA03F3DB431846FB790D4951F8233003
:100A20000240DA60FB790A4A52F82330DA687979B1
:100A3000BB7901FA03F31846FB79054951F82330D5
:100A40000243DA6000BF0C37BD4680BC704700BF70
:100A50005000002080B582B000AF0023FB7123E07E
:100A60000023BB711AE0FB79002B02D0012B09D0C7
:100A700011E0BB79254AD25CB979FB79184600F0C0
:100A80004DF808E0BB79224AD25CB979FB79184667
:100A900000F044F800BFBB790133BB71BB790F2B69
:100AA000E1D9FB790133FB71FB79022BD8D9002303
:100AB000FB7123E00023BB711AE0FB79002B02D00D
:100AC000012B09D011E0BB79124AD25CB979FB79CC
:100AD000184600F0EFF808E0BB790F4AD25CB9790C
:100AE000FB79184600F0E6F800BFBB790133BB7113
:100AF000BB790F2BE1D9FB790133FB71FB79022B19
:100B0000D8D900BF00BF0837BD4680BD1000002007
:100B100020000020300000204000002080B485B07C
:100B200000AF0346FB710B46BB7113467B71FB792B
:100B3000022B00F2B7807B791B11DBB203F00103BB
:100B4000FB737B7923F010037B71BB79072B51D8A2
:100B5000FB79574A52F823301A68BB799B000F2162
:100B600001FA03F3DB431846FB79514951F823306E
:100B700002401A60FB794E4A52F823301A6879799C
:100B8000BB799B0001FA03F31846FB79484951F8F9
:100B9000233002431A607B79082B14D1FB7B002B96
:100BA00011D1FB79424A52F82330DA68BB7901212E
:100BB00001FA03F3DB431846FB793D4951F8233032
:100BC0000240DA606EE07B79082B6BD1FB7B012B56
:100BD00068D1FB79364A52F82330DA68BB790121B3
:100BE00001FA03F31846FB79314951F823300243E7
:100BF000DA6057E0BB790F2B54D8BB79083BBB7147
:100C0000FB792B4A52F823305A68BB799B000F219D
:100C100001FA03F3DB431846FB79254951F82330E9
:100C200002405A60FB79224A52F823305A68797997
:100C3000BB799B0001FA03F31846FB791C4951F874
:100C4000233002435A607B79082B14D1FB7B002BA5
:100C500011D1FB79164A52F82330DA68BB790121A9
:100C600001FA03F3DB431846FB79114951F82330AD
:100C70000240DA6016E07B79082B13D1FB7B012B55
:100C800010D1FB790A4A52F82330DA68BB79012186
:100C900001FA03F31846FB79054951F82330024362
:100CA000DA60FFE700BF1437BD4680BC704700BF65
:100CB0005000002080B483B000AF0346FB710B46A8
:100CC000BB7113467B71FB79022B1DD8BB790F2BAF
:100CD0001AD87B79002B0CD0012B15D1BB790122BE
:100CE00002FA03F1FB790B4A52F823300A461A61E3
:100CF0000AE0BB79012202FA03F1FB79054A52F8B6
:100D000023300A465A6100BF00BF0C37BD4680BC85
:100D1000704700BF5000002080B483B000AF03468E
:100D20003A60FB710B46BB71FB79022B12D8BB7981
:100D30000F2B0FD8FB790A4A52F823309B68BA79F7
:100D4000012101FA02F21A40BB7922FA03F3DAB266
:100D50003B681A7000BF0C37BD4680BC704700BFAF
:100D60005000002080B400AF1D4B1B6823F0F80337
:100D70001B4A43F080031360194B1B68184A43F465
:100D800080231360164B1B68154A43F480331360AD
:100D9000134B5B68124A43F001035360104B5B68CE
:100DA0000F4A23F0020353600D4B5B680C4A23F497
:100DB000404353600A4B5B68094A23F46053536015
:100DC000074B5B68064A23F4E0635360044B5B689F
:100DD000034A23F0F003536000BFBD4680BC704758
:100DE0000010024080B483B000AF03460A46FB7196
:100DF0001346BB71FB791F2B1BD8BB79002B0CD082
:100E0000012B5AD12F4B5B69FA79012101FA02F2C9
:100E100011462C4A0B4353614FE02A4B5B69FA7928
:100E2000012101FA02F2D2431146264A0B405361D6
:100E300043E0FB793F2B1ED8FB79203BFB71BB794C
:100E4000002B0CD0012B38D11E4B9B69FA79012164
:100E500001FA02F211461B4A0B4393612DE0194B34
:100E60009B69FA79012101FA02F2D2431146154A2F
:100E70000B40936121E0FB795F2B1ED8FB79403B4F
:100E8000FB71BB79002B0CD0012B16D10D4BDB690C
:100E9000FA79012101FA02F211460A4A0B43D361A1
:100EA0000BE0084BDB69FA79012101FA02F2D24327
:100EB0001146044A0B40D36100BF00BF0C37BD464A
:100EC00080BC70470010024080B500AF124B1B6819
:100ED000114A23F480331360104B1B78012B11D17E
:100EE0000D4B1B680C4A23F0010313600A4B1B686F
:100EF000094A23F002031360074B00225A60064B95
:100F000000229A60064B1B68002B02D0044B1B6822
:100F1000984700BF80BD00BF10E000E0D400002073
:100F2000D800002080B500AF074B1B68002B02D013
:100F3000054B1B689847054B1B69044A23F00103C6
:100F4000136100BF80BD00BFDC000020002C014009
:100F500080B500AF074B1B68064A23F020031360DF
:100F6000054B1B68002B02D0034B1B68984700BF42
:100F700080BD00BF00380140E000002080B500AF18
:100F8000074B1B68064A23F020031360054B5B6880
:100F9000002B02D0034B5B68984700BF80BD00BFA9
:100FA00000440040E000002080B500AF074B1B6804
:100FB000064A23F020031360054B9B68002B02D0E8
:100FC000034B9B68984700BF80BD00BF00480040AE
:100FD000E000002080B485B000AF0346FB80012311
:100FE0007B817B891A465201D21A520113447B81BC
:100FF0000023FB810DE00023BB8103E000BFBB8920
:101000000133BB81BA897B899A42F7D3FB890133CB
:10101000FB81FA89FB889A42EDD300BF00BF1437E9
:10102000BD4680BC7047000090B587B000AF114B43
:1010300007F108040FCB07C423800F4A3B4692E810
:10104000030018600433198002330A0C1A70FFF78A
:1010500039FB07F108031846FFF777FA0121022050
:10106000FFF701FB3B461846FFF76FFA00BF1C373E
:10107000BD4690BD2013000830130008B0B582B003
:1010800000AFFFF76FFE01212220FFF7ABFE012129
:101090002320FFF7A7FEFFF7DDFCFFF7E9F90023A8
:1010A0003B710023FB70FFF731FB0346BB70BB783D
:1010B000FF2BF8D0FB78032BF5D801A252F823F0D0
:1010C000D110000817110008631100081112000860
:1010D0000123FB70FFF7F6FABB78392B0AD8BB78EF
:1010E0002F2B07D9BB78303BBB71BB781846FFF775
:1010F000E0F9B9E0BB786F2B0AD10023BB71002364
:101100007B700023FB710023FB70FFF7DBFAABE081
:10111000FFF78AFFA8E00223FB70BB782B2B0BD0D4
:10112000BB782D2B08D0BB782A2B05D0BB782F2B72
:1011300002D0FFF779FF97E0BB786F2B0AD100232D
:10114000BB7100237B700023FB710023FB70FFF752
:10115000B9FA89E0BB787B71BB781846FFF7A9F92B
:1011600082E00323FB70BB78392B3FD8BB782F2B51
:101170003CD9BB78303B7B70BB781846FFF799F9B8
:101180007B792A3B052B42D801A252F823F000BFFD
:10119000DF110008A91100080F120008B3110008A0
:1011A0000F120008D3110008BA797B781344FB7141
:1011B0001BE07A78BB799A4206D901233B717A7891
:1011C000BB79D31AFB7110E0BA797B78D31AFB7123
:1011D0000BE0BA797B78B2FBF3F3FB7105E0BB79E6
:1011E0007A7802FB03F3FB7100BF10E0BB786F2B32
:1011F0000AD10023BB7100237B700023FB71002305
:10120000FB70FFF75FFA2FE0FFF70EFF2CE02BE0FB
:10121000BB787B717B793D2B14D1BB787B71BB781C
:101220001846FFF746F93B79002B02D02D20FFF737
:1012300040F9FB7900221C46154620462946FFF757
:10124000A0F90FE0BB786F2B0AD10023BB710023FC
:101250007B700023FB710023FB70FFF733FA01E082
:10126000FFF7E2FE00BF1EE71DE700BF0D48854601
:10127000AFF300800C480D490D4A002302E0D4581A
:10128000C4500433C4188C42F9D30A4A0A4C0023D0
:1012900001E013600432A242FBD300F011F8FFF723
:1012A000EDFEFEE700500020000000205C00002062
:1012B000481300085C000020EC000020FEE700005E
:1012C00070B500260C4D0D4C641BA410A64209D12C
:1012D00000F01AF800260A4D0A4C641BA410A6421E
:1012E00005D170BD55F8043B98470136EEE755F837
:1012F000043B98470136F2E740130008401300080A
:101300004013000844130008F8B500BFF8BC08BC3F
:101310009E467047F8B500BFF8BC08BC9E467047B3
:10132000496E76616C696420496E707574000000C6
:081330004572726F722100008A
:0813380068EEFF7F01000000D8
:04134000550100084B
:04134400310100086B
:101348003738392F3435362A3132332D6F303D2B2B
:1013580000000D04020202020A0A0A0A020202023C
:1013680002020218181818020202020402020202FB
:10137800000000010101010000000000010101015D
:10138800000000010101010000000000010101014D
:0C13980000080140000C01400010014062
:040000050800126D70
:00000001FF
