S016000050574D5F4472617765725F4943552E7372656316
S11300000C942A000C9447000C9447000C9447006D
S11300100C9447000C9447000C94EA040C94980444
S11300200C94C1040C946F040C94C8020C949F02A9
S11300300C9447000C9447000C9447000C94470020
S11300400C9447000C9447000C9447000C94470010
S11300500C94470011241FBECFE5D8E0DEBFCDBF0E
S113006010E0A0E6B0E0ECEBFBE002C005900D92DE
S1130070AC36B107D9F720E0ACE6B0E001C01D9280
S1130080A038B207E1F70E942B020C94DC050C9413
S1130090000041E061E080E690E00E9465028FECA0
S11300A097E00197F1F700C0000040E061E080E6CE
S11300B090E00E9465028FEC97E00197F1F700C091
S11300C000000895682F86E690E00E948A0241E0CD
S11300D060E080E690E00E9465020E9449008FEC97
S11300E097E00197F1F700C000000895682F86E6B5
S11300F090E00E948A0240E060E080E690E00E9486
S113010065020E9449008FEC97E00197F1F700C067
S1130110000008952F923F924F925F926F927F92C8
S11301208F929F92AF92BF92CF92DF92EF92FF9203
S11301300F931F93CF93DF93CDB7DEB728970FB6F6
S1130140F894DEBF0FBECDBF29833A834B835C8313
S11301506D837E83382E292EA0E00E94D00509F0FD
S113016081C080E30E946200CBC02F813885492D75
S1130170582D672D762D852D942D01E00E94AE0516
S1130180822E932E48875F83B62FA72FF82FE92F4F
S113019002E00E94AE05A22EB32EC42ED52EE62E6A
S11301A0F72E082F192F282D392D48855F816B2FA5
S11301B07A2F8F2F9E2F0E94C70528873F83942E66
S11301C0852E762E672E582E492E0F2EFAE0AF2E4E
S11301D0F02DB12CC12CD12CE12CF12C00E010E03D
S11301E029813A814B815C816D817E81832D922DA1
S11301F00E944F05A22EB32EC42ED52EE62EF72E26
S1130200082F192F28853F81492D582D672D762DCC
S1130210852D942D0E94C7052F833887942E852E13
S1130220762E672E582E492E0F2EFAE0AF2EF02D83
S1130230B12CC12CD12CE12CF12C00E010E029814F
S11302403A814B815C816D817E81832D922D0E9448
S1130250510529833A834B835C836D837E83382ED7
S1130260292E09C081E01886912C812C712C612CD7
S1130270512C412C8F8329813A814B815C816D8182
S11302807E81832D922DA0E00E94D00509F06DCFD0
S11302902BC00F2EFAE0AF2EF02DB12CC12CD12C97
S11302A0E12CF12C00E010E02F813885492D582DE8
S11302B0672D762D852D942D0E944F0580E3820FA6
S11302C00E9462002F813885492D582D672D762D87
S11302D0852D942D0E9451052F833887942E852EC9
S11302E0762E672E582E492E2F813885492D582D6C
S11302F0672D762D852D942DA1E00E94D00549F619
S113030028960FB6F894DEBF0FBECDBFDF91CF9114
S11303101F910F91FF90EF90DF90CF90BF90AF901F
S11303209F908F907F906F905F904F903F902F9011
S113033008959FEF980F923070F4613170F4662342
S113034071F0813019F42FE7260F0AC0823041F48E
S11303502FEB260F05C020E803C020E801C020E8E9
S1130360822F0E9476008FEC97E00197F1F700C08E
S11303700000089581E00E94760082E00E947600E9
S11303808FE99FE00197F1F700C0000008952FEB7B
S11303908AED90E0215080409040E1F700C00000D9
S11303A082E00E9476008FEC97E00197F1F700C09D
S11303B0000088E30E9476008FEC97E00197F1F744
S11303C000C000008CE00E9476008FEC97E001975B
S11303D0F1F700C000000E94BA0186E00E94760096
S11303E08FEC97E00197F1F700C000000895809129
S11303F06C008F5F80936C000895CF92DF92EF9230
S1130400FF921F93CF93DF93182F6A017B010E9401
S1130410BA01D701C6012C2D392F4A2F5B2F60E07A
S113042070E080E090E00E948A0061E082E00E9437
S11304309901212F30E040E050E060E070E080E07E
S113044090E00E948A00DF91CF911F91FF90EF907E
S1130450DF90CF900895CF93DF9300D000D01F9208
S1130460CDB7DEB70E94910222E040E061E080E077
S11304700E94F10287EF91E00E94E0030E94C7010D
S11304807894C12CD12C760110E0BE016B5F7F4FB4
S1130490CE0101960E94EA0389819A81AB81BC81D5
S11304A0C816D906EA06FB0619F48D81181769F3F4
S11304B049815A816B817C818D810E94FD011D815E
S11304C0C980DA80EB80FC80E0CF413081F4DC012C
S11304D01296ED91FC911397208181E090E002C087
S11304E0880F991F6A95E2F7822B80830895411142
S11304F010C0DC011296ED91FC911397208181E0EC
S113050090E002C0880F991F6A95E2F780958223D4
S113051080830895DC011296ED91FC91139760831A
S113052008959EEF9ABB8FEF87BB27E024BB23EB94
S113053021BB9BBB88BB15BA8CE082BB08951F927C
S11305400F920FB60F9211242F933F934F935F9303
S11305506F937F938F939F93AF93BF93EF93FF9387
S1130560E0917700F0917800309709F00995FF91B8
S1130570EF91BF91AF919F918F917F916F915F9117
S11305804F913F912F910F900FBE0F901F90189590
S11305901F920F920FB60F9211242F933F934F93F4
S11305A05F936F937F938F939F93AF93BF93EF93D7
S11305B0FF93E0917500F0917600309709F009956A
S11305C0FF91EF91BF91AF919F918F917F916F9127
S11305D05F914F913F912F910F900FBE0F901F90FD
S11305E01895823039F128F4882351F08130A9F02C
S11305F054C08430C9F158F1853009F442C04DC06B
S11306008FB58E7F8FBD8FB58D7F8FBD8EB5877F64
S11306108EBD8EB58F7E8EBD40C08FB58E7F8FBD53
S11306208FB58D7F8FBD8EB588608EBD8EB5806190
S11306308EBD33C08FB58E7F8FBD8FB58D7F8FBD3F
S11306408EB588608EBD8EB58F7E8EBD26C08FB56B
S11306508E7F8FBD8FB582608FBD8EB588608EBD55
S11306608EB580618EBD19C08FB581608FBD8FB589
S113067082608FBD8EB588608EBD8EB580618EBD63
S11306800CC08FB581608FBD8FB582608FBD8EB574
S1130690877F8EBD8EB580618EBD413069F028F0B4
S11306A0423089F04330B1F01BC08FB58F7B8FBDD2
S11306B08FB58F778FBD14C08FB580648FBD8FB514
S11306C08F778FBD0DC08FB58F7B8FBD8FB5806841
S11306D08FBD06C08FB580648FBD8FB580688FBD18
S11306E0213069F028F0223089F02330B1F01BC0AA
S11306F08FB58F7E8FBD8FB58F7D8FBD14C08FB5A5
S113070080618FBD8FB58F7D8FBD0DC08FB58F7EFE
S11307108FBD8FB580628FBD06C08FB580618FBDE0
S11307208FB580628FBD8EB5887F8EBD8EB5682BE8
S11307306EBD0895811104C08EB580648EBD089588
S1130740813019F48EB58F7B8EBD089589B7806290
S113075089BF089589B78F7D89BF089580917900F5
S113076081110DC086B597B590937F0080937E006C
S113077081E00E949A0381E080937900089580913A
S11307807900813069F486B597B590937D008093A4
S11307907C0080E00E949A0382E0809379000895AF
S11307A080917900823059F40E94AA0386B597B5E6
S11307B090937B0080937A0083E08093790008957E
S11307C09093740080937300089590936E008093C7
S11307D06D0008954F925F926F927F928F929F92D5
S11307E0AF92BF92CF92DF92EF92FF920F931F933B
S11307F0CF93DF938C01EB018EEA93E00E94E50333
S113080080E00E949A031DBC1CBC0E94A6031092A7
S11308107900809179008330E0F3C0907C00D0901F
S11308207D0080917E0090917F00C81AD90AE12C46
S1130830F12CE0917A00F0917B0080917C00909102
S11308407D00E81BF90BA4E6B0E0A70196010E9425
S11308504405CE0EDF1EE11CF11CA70196010E9487
S11308601305288346015701B694A7949794879457
S113087026013701689412F8769467945794479444
S11308801694D1F7840C951CA61CB71CAB01BC01B3
S113089066277727481559056A057B0510F02F5FF1
S11308A0288360E072E18AE790E0A70196010E9444
S11308B01305F8012083318342835383DF91CF9161
S11308C01F910F91FF90EF90DF90CF90BF90AF906A
S11308D09F908F907F906F905F904F9008951F929C
S11308E00F920FB60F9211242F933F934F935F9360
S11308F06F937F938F939F93AF93BF93EF93FF93E4
S1130900E0917300F0917400309709F00995FF911C
S1130910EF91BF91AF919F918F917F916F915F9173
S11309204F913F912F910F900FBE0F901F901895EC
S11309301F920F920FB60F9211242F933F934F9350
S11309405F936F937F938F939F93AF93BF93EF9333
S1130950FF93E0917100F0917200309709F00995CE
S1130960FF91EF91BF91AF919F918F917F916F9183
S11309705F914F913F912F910F900FBE0F901F9059
S113098018951F920F920FB60F9211242F933F9335
S11309904F935F936F937F938F939F93AF93BF9383
S11309A0EF93FF93E0916F00F0917000309709F09E
S11309B00995FF91EF91BF91AF919F918F917F9195
S11309C06F915F914F913F912F910F900FBE0F90B8
S11309D01F9018951F920F920FB60F9211242F9308
S11309E03F934F935F936F937F938F939F93AF93B3
S11309F0BF93EF93FF93E0916D00F0916E003097F9
S1130A0009F00995FF91EF91BF91AF919F918F915B
S1130A107F916F915F914F913F912F910F900FBEF6
S1130A200F901F901895A1E21A2EAA1BBB1BFD0163
S1130A300DC0AA1FBB1FEE1FFF1FA217B307E407B9
S1130A40F50720F0A21BB30BE40BF50B661F771F11
S1130A50881F991F1A9469F76095709580959095F1
S1130A609B01AC01BD01CF010895A29FB001B39FCA
S1130A70C001A39F700D811D1124911DB29F700DA3
S1130A80811D1124911D08950E943505A59F900D87
S1130A90B49F900DA49F800D911D11240895689416
S1130AA001C0E8948F929F92CF93DF930E945D05DB
S1130AB0DF91CF919F908F90089588249924F40119
S1130AC0E401B0E49F93AA279A158B049C04ED05D6
S1130AD0FE05CF05D007A10798F4AD2FDC2FCF2F4B
S1130AE0FE2FE92D982C892E982F872F762F652F8E
S1130AF0542F432F322F2227B85031F7BF9127C0EC
S1130B001B2EBF91BB27220F331F441F551F661F87
S1130B10771F881F991F881C991CEE1FFF1FCC1F6D
S1130B20DD1FAA1FBB1F8A149B04EC05FD05CE051F
S1130B30DF05A007B10748F08A189B08EC09FD09F6
S1130B40CE09DF09A00BB10B21601A94E1F62EF453
S1130B509401AF01BE01CD01000C08950F9308303C
S1130B6090F0982F872F762F652F542F432F322FF5
S1130B7022270850F4CF220F331F441F551F661F2E
S1130B80771F881F991F0A95B2F70F9108952A0DB0
S1130B903B1D4C1D5D1D6E1D7F1D801F911F089503
S1130BA00024A7FD00942A17300540055005600570
S10F0BB07005800590050895F894FFCFAF
S10F0BBC340035003300370038003600E8
S9030000FC
