S012000050574D5F4472617765722E737265635A
S11300000C942A000C949C030C94C5030C94EE03EA
S11300100C9447000C9447000C94CA050C94780582
S11300200C94A1050C944F050C944E040C942504D7
S11300300C9447000C94F3050C9447000C941C0694
S11300400C9441030C9447000C9447000C94470013
S11300500C94470011241FBECFE5D8E0DEBFCDBF0E
S113006010E0A0E6B0E0EAE0FEE002C005900D92E8
S1130070A237B107D9F720E0A2E7B0E001C01D9292
S1130080A938B207E1F70E948B020C9403070C9481
S1130090000041E061E080E690E00E944B038FECB9
S11300A097E00197F1F700C0000040E061E080E6CE
S11300B090E00E944B038FEC97E00197F1F700C0AA
S11300C000000895682F86E690E00E94700341E0E6
S11300D060E080E690E00E944B030E9449008FECB0
S11300E097E00197F1F700C000000895682F86E6B5
S11300F090E00E94700340E060E080E690E00E949F
S11301004B030E9449008FEC97E00197F1F700C080
S1130110000008952F923F924F925F926F927F92C8
S11301208F929F92AF92BF92CF92DF92EF92FF9203
S11301300F931F93CF93DF93CDB7DEB728970FB6F6
S1130140F894DEBF0FBECDBF29833A834B835C8313
S11301506D837E83382E292EA0E00E94F70609F0D5
S113016081C080E30E946200CBC02F813885492D75
S1130170582D672D762D852D942D01E00E94D506EE
S1130180822E932E48875F83B62FA72FF82FE92F4F
S113019002E00E94D506A22EB32EC42ED52EE62E42
S11301A0F72E082F192F282D392D48855F816B2FA5
S11301B07A2F8F2F9E2F0E94EE0628873F83942E3E
S11301C0852E762E672E582E492E0F2EFAE0AF2E4E
S11301D0F02DB12CC12CD12CE12CF12C00E010E03D
S11301E029813A814B815C816D817E81832D922DA1
S11301F00E947606A22EB32EC42ED52EE62EF72EFE
S1130200082F192F28853F81492D582D672D762DCC
S1130210852D942D0E94EE062F833887942E852EEB
S1130220762E672E582E492E0F2EFAE0AF2EF02D83
S1130230B12CC12CD12CE12CF12C00E010E029814F
S11302403A814B815C816D817E81832D922D0E9448
S1130250780629833A834B835C836D837E83382EAF
S1130260292E09C081E01886912C812C712C612CD7
S1130270512C412C8F8329813A814B815C816D8182
S11302807E81832D922DA0E00E94F70609F06DCFA8
S11302902BC00F2EFAE0AF2EF02DB12CC12CD12C97
S11302A0E12CF12C00E010E02F813885492D582DE8
S11302B0672D762D852D942D0E94760680E3820F7E
S11302C00E9462002F813885492D582D672D762D87
S11302D0852D942D0E9478062F833887942E852EA1
S11302E0762E672E582E492E2F813885492D582D6C
S11302F0672D762D852D942DA1E00E94F70649F6F1
S113030028960FB6F894DEBF0FBECDBFDF91CF9114
S11303101F910F91FF90EF90DF90CF90BF90AF901F
S11303209F908F907F906F905F904F903F902F9011
S113033008959FEF980F923070F4613170F4662342
S113034071F0813019F42FE7260F0AC0823041F48E
S11303502FEB260F05C020E803C020E801C020E8E9
S1130360822F0E9476008FEC97E00197F1F700C08E
S11303700000089581E00E94760082E00E947600E9
S11303808FE99FE00197F1F700C0000008952FEB7B
S11303908AED90E0215080409040E1F700C00000D9
S11303A082E00E9476008FEC97E00197F1F700C09D
S11303B0000088E30E9476008FEC97E00197F1F744
S11303C000C000008CE00E9476008FEC97E001975B
S11303D0F1F700C000000E94BA0186E00E94760096
S11303E08FEC97E00197F1F700C000000895CF93D8
S11303F0DF930E94BA0180916C0090916D00A091EE
S11304006E00B0916F00282F392F4A2F5B2F60E0C8
S113041070E080E090E00E948A0061E082E00E9447
S113042099012091720030E040E050E060E070E01B
S113043080E090E00E948A00DF91CF91089580913E
S11304406C0090916D00A0916E00B0916F008035AA
S1130450934CA105B10530F580916C0090916D002D
S1130460A0916E00B0916F008C509E4FAF4FBF4F64
S113047080936C0090936D00A0936E00B0936F0016
S113048080916C0090916D00A0916E00B0916F000E
S1130490BC01CD01882799270E94380580917200FC
S11304A00E9427050E94F701089580916C009091A5
S11304B06D00A0916E00B0916F00843F9140A10542
S11304C0B10530F180916C0090916D00A0916E00A7
S11304D0B0916F00845F9140A109B10980936C00D1
S11304E090936D00A0936E00B0936F0080916C00A8
S11304F090916D00A0916E00B0916F00BC01CD0190
S1130500882799270E943805809172000E94270548
S11305100E94F7010895CF93DF9300D0CDB7DEB7E3
S11305200E9417040E94E0028FE99FE00E942405C4
S113053022E040E061E085E00E94770482E00E94CE
S11305407F0382E00E9486038FE192E00E9492037F
S113055085E592E00E9497030E94C7010E947703F9
S11305600E947B030E94200582E30E9427058FEFEF
S113057090E09A838983789400E010E0BE016F5F75
S11305807F4F80E00E94FE028823C1F329813A81D3
S11305900217130799F3A4E6B0E00E9467062FEF51
S11305A033E040E050E00E944506209372000E9430
S11305B0F701809172000E94270509811A81DECF1C
S11305C087B18F7D87B987B1806487B987B18F7709
S11305D087B987B1807E87B987B187B986B18F7DA6
S11305E086B986B1887F86B986B1856086B986B1B9
S11305F0806886B986B1886086B9089596B196FBFD
S1130600222720F996FF04C01092700090E037C0B2
S1130610211134C090917100981312C02091700080
S113062021110EC024B185B190E0982F8827822B28
S1130630FB019183808381E08093700091E01FC06F
S1130640981310C090917000913061F486B1806469
S113065086B986B186FB992790F986FDFACF109268
S113066070000DC090917000992349F0809371003F
S1130670883020F497B1907E892B87B90895892F0B
S113068008951F920F920FB60F9211240F900FBE70
S11306900F901F901895413081F4DC011296ED9172
S11306A0FC911397208181E090E002C0880F991F8C
S11306B06A95E2F7822B80830895411110C0DC0112
S11306C01296ED91FC911397208181E090E002C095
S11306D0880F991F6A95E2F7809582238083089595
S11306E0DC011296ED91FC911397608308958BB70A
S11306F080648BBF08958BB780688BBF08959BB7C8
S11307009C7F9BBF9BB7892B8BBF08959BB7937F1F
S11307109BBF2BB790E0880F991F880F991F822BDE
S11307208BBF0895909378008093770008959093F9
S113073076008093750008951F920F920FB60F9262
S113074011242F933F934F935F936F937F938F93D2
S11307509F93AF93BF93EF93FF93E0917700F09152
S11307607800309709F00995FF91EF91BF91AF910F
S11307709F918F917F916F915F914F913F912F91B5
S11307800F900FBE0F901F9018951F920F920FB6E7
S11307900F9211242F933F934F935F936F937F9303
S11307A08F939F93AF93BF93EF93FF93E091750063
S11307B0F0917600309709F00995FF91EF91BF9180
S11307C0AF919F918F917F916F915F914F913F91E5
S11307D02F910F900FBE0F901F9018951F920F929C
S11307E00FB60F9211242F933F934F935F936F9300
S11307F07F938F939F93AF93BF93EF93FF93E09176
S11308007300F0917400309709F00995FF91EF910E
S1130810BF91AF919F918F917F916F915F914F9114
S11308203F912F910F900FBE0F901F9018959EEF40
S11308309ABB8FEF87BB27E024BB23EB21BB9BBB79
S113084088BB15BA8CE082BB08951F920F920FB635
S11308500F9211242F933F934F935F936F937F9342
S11308608F939F93AF93BF93EF93FF93E091830094
S1130870F0918400309709F00995FF91EF91BF91B1
S1130880AF919F918F917F916F915F914F913F9124
S11308902F910F900FBE0F901F9018951F920F92DB
S11308A00FB60F9211242F933F934F935F936F933F
S11308B07F938F939F93AF93BF93EF93FF93E091B5
S11308C08100F0918200309709F00995FF91EF9132
S11308D0BF91AF919F918F917F916F915F914F9154
S11308E03F912F910F900FBE0F901F90189582305B
S11308F039F128F4882351F08130A9F054C08430B0
S1130900C9F158F1853009F442C04DC08FB58E7FCE
S11309108FBD8FB58D7F8FBD8EB5877F8EBD8EB514
S11309208F7E8EBD40C08FB58E7F8FBD8FB58D7F7E
S11309308FBD8EB588608EBD8EB580618EBD33C08F
S11309408FB58E7F8FBD8FB58D7F8FBD8EB588603F
S11309508EBD8EB58F7E8EBD26C08FB58E7F8FBD2A
S11309608FB582608FBD8EB588608EBD8EB5806177
S11309708EBD19C08FB581608FBD8FB582608FBD6C
S11309808EB588608EBD8EB580618EBD0CC08FB56E
S113099081608FBD8FB582608FBD8EB5877F8EBD20
S11309A08EB580618EBD413069F028F0423089F007
S11309B04330B1F01BC08FB58F7B8FBD8FB58F7760
S11309C08FBD14C08FB580648FBD8FB58F778FBDF9
S11309D00DC08FB58F7B8FBD8FB580688FBD06C06E
S11309E08FB580648FBD8FB580688FBD213069F06D
S11309F028F0223089F02330B1F01BC08FB58F7EF0
S1130A008FBD8FB58F7D8FBD14C08FB580618FBDB5
S1130A108FB58F7D8FBD0DC08FB58F7E8FBD8FB588
S1130A2080628FBD06C08FB580618FBD8FB5806237
S1130A308FBD8EB5887F8EBD8EB5682B6EBD089533
S1130A4089B7806189BF08959BBD8ABD08958536A5
S1130A5070F4AAB5BBB5282F30E00E94670624E6DF
S1130A6030E040E050E00E94450639BD28BD0895BD
S1130A709B01AC01672B682B692B81F060E079E066
S1130A808DE390E00E9445062115310529F021509F
S1130A9031093BBD2ABD08951BBC1ABC08951F92A1
S1130AA00F920FB60F9211242F933F934F935F939E
S1130AB06F937F938F939F93AF93BF93EF93FF9322
S1130AC0E0917F00F0918000309709F00995FF9143
S1130AD0EF91BF91AF919F918F917F916F915F91B2
S1130AE04F913F912F910F900FBE0F901F9018952B
S1130AF01F920F920FB60F9211242F933F934F938F
S1130B005F936F937F938F939F93AF93BF93EF9371
S1130B10FF93E0917D00F0917E00309709F00995F4
S1130B20FF91EF91BF91AF919F918F917F916F91C1
S1130B305F914F913F912F910F900FBE0F901F9097
S1130B4018951F920F920FB60F9211242F933F9373
S1130B504F935F936F937F938F939F93AF93BF93C1
S1130B60EF93FF93E0917B00F0917C00309709F0C4
S1130B700995FF91EF91BF91AF919F918F917F91D3
S1130B806F915F914F913F912F910F900FBE0F90F6
S1130B901F9018951F920F920FB60F9211242F9346
S1130BA03F934F935F936F937F938F939F93AF93F1
S1130BB0BF93EF93FF93E0917900F0917A0030971F
S1130BC009F00995FF91EF91BF91AF919F918F919A
S1130BD07F916F915F914F913F912F910F900FBE35
S1130BE00F901F9018951F920F920FB60F92112419
S1130BF02F933F934F935F936F937F938F939F9321
S1130C00AF93BF93EF93FF93E0918700F091880037
S1130C10309709F00995FF91EF91BF91AF919F91A2
S1130C208F917F916F915F914F913F912F910F9091
S1130C300FBE0F901F9018951F920F920FB60F9230
S1130C4011242F933F934F935F936F937F938F93CD
S1130C509F93AF93BF93EF93FF93E0918500F0913F
S1130C608600309709F00995FF91EF91BF91AF91FC
S1130C709F918F917F916F915F914F913F912F91B0
S1130C800F900FBE0F901F901895A1E21A2EAA1B69
S1130C90BB1BFD010DC0AA1FBB1FEE1FFF1FA21728
S1130CA0B307E407F50720F0A21BB30BE40BF50B25
S1130CB0661F771F881F991F1A9469F760957095AE
S1130CC0809590959B01AC01BD01CF010895A29F31
S1130CD0B001B39FC001A39F700D811D1124911D0C
S1130CE0B29F700D811D1124911D0895689401C057
S1130CF0E8948F929F92CF93DF930E948406DF91B2
S1130D00CF919F908F90089588249924F401E40151
S1130D10B0E49F93AA279A158B049C04ED05FE0565
S1130D20CF05D007A10798F4AD2FDC2FCF2FFE2FCE
S1130D30E92D982C892E982F872F762F652F542FE5
S1130D40432F322F2227B85031F7BF9127C01B2ED3
S1130D50BF91BB27220F331F441F551F661F771FE8
S1130D60881F991F881C991CEE1FFF1FCC1FDD1FB5
S1130D70AA1FBB1F8A149B04EC05FD05CE05DF05E5
S1130D80A007B10748F08A189B08EC09FD09CE09B1
S1130D90DF09A00BB10B21601A94E1F62EF4940143
S1130DA0AF01BE01CD01000C08950F93083090F0FF
S1130DB0982F872F762F652F542F432F322F2227DA
S1130DC00850F4CF220F331F441F551F661F771F8F
S1130DD0881F991F0A95B2F70F9108952A0D3B1D9C
S1130DE04C1D5D1D6E1D7F1D801F911F08950024E5
S1130DF0A7FD00942A1730054005500560057005CD
S10D0E00800590050895F894FFCFD3
S1130E0A340035003300370038003600E8030000A8
S1050E1A01FFD2
S9030000FC
