:020000040800F2
:1000000000500020851C0008D51C0008D51C0008E5
:10001000D51C0008D51C0008D51C000800000000F5
:10002000000000000000000000000000D51C0008D7
:10003000D51C000800000000D51C00086114000851
:10004000D51C0008D51C0008D51C0008D51C0008CC
:10005000D51C0008D51C0008F10D0008150E00087D
:10006000390E00085D0E0008810E0008650C0008BE
:10007000810C00089D0C0008B90C0008D50C000884
:10008000F10C00080D0D0008D51C0008D51C000857
:10009000D51C0008D51C0008D51C0008A50E0008BA
:1000A000D51C000855170008D51C0008D51C0008F1
:1000B000D51C0008D51C0008D51C0008D51C00085C
:1000C000D51C0008D51C0008D51C0008D51C00084C
:1000D000D51C0008B5180008E11800080D19000823
:1000E000150F0008D51C000800000000D51C0008F2
:1000F000D51C0008D51C0008D51C0008D51C00081C
:10010000D51C0008D51C0008D51C0008D51C00080B
:10011000D51C0008D51C0008D51C0008D51C0008FB
:10012000D51C0008D51C0008D51C0008D51C0008EB
:1001300010B5054C237833B9044B13B10448AFF321
:1001400000800123237010BD9C00002000000000EF
:10015000201D000808B5034B1BB103490348AFF34A
:10016000008008BD00000000A0000020201D000845
:1001700053B94AB9002908BF00281CBF4FF0FF310E
:100180004FF0FF3000F072B9ADF1080C6DE904CE0C
:1001900000F006F8DDF804E0DDE9022304B0704762
:1001A0002DE9F047089E0D4604468E46002B4CD1A3
:1001B0008A42944667D9B2FA82F353B102FA03FC39
:1001C000C3F1200201FA03FE20FA02F242EA0E0E07
:1001D0009C404FEA1C47BEFBF7F11FFA8CF507FB6A
:1001E00011EE01FB05F0220C42EA0E4290420AD9C0
:1001F0001CEB020201F1FF3E80F01981904240F2B7
:10020000168102396244121AB2FBF7F007FB102282
:1002100000FB05F5A4B244EA0244A5420AD91CEB4E
:10022000040400F1FF3280F00481A54240F2018114
:100230006444023840EA01400021641B1EB1DC40E6
:100240000023C6E90043BDE8F0878B4208D9002EA1
:1002500000F0EA800021C6E900050846BDE8F08705
:10026000B3FA83F1002948D1AB4202D3824200F2B3
:10027000F880841A65EB030201209646002EE2D036
:10028000C6E9004EDFE702B9FFDEB2FA82F3002BC7
:1002900040F08E80881A0121170C1FFA82FEB0FBF5
:1002A000F7F507FB1500220C42EA00420EFB05F0B1
:1002B000904208D91CEB020205F1FF3802D29042AD
:1002C00000F2CC804546121AB2FBF7F007FB102271
:1002D0000EFB00FEA4B244EA0244A64508D91CEB7A
:1002E000040400F1FF3202D2A64500F2B4801046A9
:1002F000A4EB0E0440EA0540A0E7C1F120078B40C3
:1003000022FA07FC4CEA030C25FA07FA4FEA1C49CB
:10031000BAFBF9F88D4020FA07F309FB18AA1FFA77
:100320008CFE2B4300FA01F508FB0EF01C0C44EA8E
:100330000A44A04202FA01F20BD91CEB040408F1B2
:10034000FF3A80F08680A04240F28380A8F1020844
:100350006444241A98B2B4FBF9F309FB134403FB79
:100360000EFE40EA0444A64508D91CEB040403F140
:10037000FF306AD2A64568D9023B644443EA08408C
:10038000A0FB0293A4EB0E049C42C8469E4654D3A5
:1003900051D0002E67D0B5EB080364EB0E04CB40C0
:1003A00004FA07F71F43CC40C6E9007400214AE76E
:1003B00002FA03FCC3F12000C1409D4024FA00F082
:1003C0004FEA1C472843B1FBF7F507FB15111FFA4D
:1003D0008CFE020C42EA014205FB0EF1914204FA46
:1003E00003F408D91CEB020205F1FF382FD2914229
:1003F0002DD9023D6244521AB2FBF7F107FB1122DC
:1004000080B240EA024001FB0EF2824208D91CEBA6
:10041000000001F1FF3816D2824214D9023960443B
:10042000801A41EA05413AE7314630460BE771460A
:10043000E9E61046FEE64D45ABD2B9EB020863EBA8
:100440000C0E0138A5E74146EAE7034696E7454624
:10045000D1E7D0467DE76444023849E7023D624473
:1004600031E708460AE73146EDE600BF704700BFB6
:1004700080B500AF232001F069FA022000F03FF8B8
:10048000142001F063FA282000F039F8012001F06F
:100490005DFA0C2000F033F8012001F057FA00F06B
:1004A0009FF8062000F02BF8012001F04FFA00BF62
:1004B00080BD80B582B000AF0346FB7101220021F0
:1004C000012000F0BDFEFB791B09DBB21A460C21AE
:1004D000012000F053FD00F093F8FB7903F00F03C7
:1004E000DBB21A460C21012000F048FD00F088F82C
:1004F000012001F02BFA00BF0837BD4680BD80B552
:1005000082B000AF0346FB7100220021012000F001
:1005100097FEFB791B09DBB21A460C21012000F083
:100520002DFD00F06DF8FB7903F00F03DBB21A46E6
:100530000C21012000F022FD00F062F8012001F002
:1005400005FA00BF0837BD4680BD80B584B000AF56
:1005500078600023FB7309E0FB7B7A6813441B7807
:100560001846FFF7A6FFFB7B0133FB73FB7B7A6822
:1005700013441B78002BEFD100BF00BF1037BD46DE
:1005800080BD80B584B000AF03460A46FB711346B8
:10059000BB71FB79022B08D8FB79002B05D0BB7906
:1005A000102B02D8BB79002B02D18023FB730CE007
:1005B000FB79012B03D1BB797F33FB7305E0FB791A
:1005C000022B02D1BB79413BFB73FB7B1846FFF743
:1005D00096FF012001F0BAF900BF1037BD4680BD7B
:1005E00080B500AF0120FFF78AFF012001F0AEF9CE
:1005F0000220FFF784FF012001F0A8F900BF80BDB1
:1006000080B500AF01220121012000F019FE012078
:1006100001F09CF900220121012000F011FE0120CF
:1006200001F094F900BF80BD80B485B000AF0346EF
:100630000A46FB711346BB71FB790F2B29D8FB7956
:100640009B08FB73FB7903F00303BB73134AFB7B2B
:10065000023352F82320BB7B9B000F2101FA03F3E6
:10066000DB4318460D49FB7B0240023341F823204F
:100670000A4AFB7B023352F82320B979BB7B9B00EB
:1006800001FA03F318460549FB7B0243023341F8A4
:10069000232000BF1437BD4680BC704700000140D6
:1006A00090B482B000AF0446084611461A4623466D
:1006B000FB710346BB710B467B7113463B7193493B
:1006C000FA7913469B0013449B000B440833002225
:1006D0001A6000BF8D49FA7913469B0013449B00B2
:1006E0000B4408331B6803F00103012BF2D03B7C61
:1006F000032B00F2628101A252F823F00D070008DB
:1007000061080008B7070008110900087F49FA7955
:1007100013469B0013449B000B4408331B687B4823
:10072000FA7923F4804113469B0013449B00034451
:10073000083319607549FA7913469B0013449B00EE
:100740000B4408331B687148FA7923F010011346F3
:100750009B0013449B000344083319606B49FA79EA
:1007600013469B0013449B000B4408331B683A7DDF
:10077000920111466548FA79194313469B001344C8
:100780009B000344083319606049FA7913469B00C3
:1007900013449B000B4408331B683A7ED201114678
:1007A0005A48FA79194313469B0013449B000344AB
:1007B0000833196001E15549FA7913469B00134447
:1007C0009B000B4408331B685048FA7943F480417E
:1007D00013469B0013449B000344083319604B49A4
:1007E000FA7913469B0013449B000B4408331B68A3
:1007F0004648FA7943F0100113469B0013449B00CE
:100800000344083319604149FA7913469B001344A5
:100810009B000B4408331B683A7D920111463B480C
:10082000FA79194313469B0013449B000344083391
:1008300019603649FA7913469B0013449B000B4418
:1008400008331B683A7ED20111463048FA791943C1
:1008500013469B0013449B00034408331960ACE02B
:100860002A49FA7913469B0013449B000B44083332
:100870001B682648FA7923F4804113469B001344F1
:100880009B000344083319602049FA7913469B0002
:1008900013449B000B4408331B681C48FA7943F04F
:1008A000100113469B0013449B0003440833196056
:1008B0001649FA7913469B0013449B000B440833F6
:1008C0001B683A7DD20111461048FA791943134644
:1008D0009B0013449B000344083319600B49FA79C9
:1008E00013469B0013449B000B4408331B683A7E5D
:1008F000920111460548FA79194313469B001344A7
:100900009B0003440833196057E000BF0000024019
:100910006449FA7913469B0013449B000B44083347
:100920001B686048FA7923F4804113469B00134406
:100930009B000344083319605A49FA7913469B0017
:1009400013449B000B4408331B685648FA7923F084
:10095000100113469B0013449B00034408331960A5
:100960005049FA7913469B0013449B000B4408330B
:100970001B683A7DD20111464A48FA791943134659
:100980009B0013449B000344083319604549FA79DE
:1009900013469B0013449B000B4408331B683A7EAC
:1009A000920111463F48FA79194313469B001344BC
:1009B0009B0003440833196000BF3A49FA79134693
:1009C0009B0013449B000B4408331B68BA79120345
:1009D00011463448FA79194313469B0013449B008F
:1009E0000344083319602F49FA7913469B001344D6
:1009F0009B000B4408331B683A79120211462948C0
:100A0000FA79194313469B0013449B0003440833AF
:100A100019602449FA7913469B0013449B000B4448
:100A200008331B687A79920211461E48FA791943F5
:100A300013469B0013449B00034408331960194973
:100A4000FA7913469B0013449B000B4408331B6840
:100A500097F82020520111461248FA79194313469B
:100A60009B0013449B000344083319600D49FA7935
:100A700013469B0013449B000B4408331B683A7FCA
:100A8000520011460748FA79194313469B00134454
:100A90009B0003440833196000BF0837BD4690BC73
:100AA000704700BF0000024080B582B000AF03462F
:100AB000FB71FB790021184600F0B6F8FB790121A3
:100AC000184600F0B1F8FB790221184600F0ACF8A6
:100AD000FB790321184600F0A7F80C49FA79134670
:100AE0009B0013449B000B4408331B680748FA79AA
:100AF00043F0010113469B0013449B000344083359
:100B0000196000BF0837BD4680BD00BF000002402D
:100B100080B483B000AF0346FB711449FA791346E1
:100B20009B0013449B000B4408331B680F48FA7961
:100B300023F0010113469B0013449B000344083338
:100B4000196000BF0949FA7913469B0013449B00C2
:100B50000B4408331B6803F00103002BF2D100BFE4
:100B600000BF0C37BD4680BC704700BF000002408C
:100B700080B584B000AFB9607A601A460346FB7353
:100B80001346BB81FB7B1846FFF7C2FF7B68092B2E
:100B90000DD82348FA7B23497B6851F8231013466C
:100BA0009B0013449B000344103319600CE07B68E6
:100BB000092B09D91A49FA7B13469B0013449B0061
:100BC0000B4410337A681A60BB68092B0DD814489F
:100BD000FA7B1449BB6851F8231013469B00134459
:100BE0009B000344143319600CE0BB68092B09D93E
:100BF0000B49FA7B13469B0013449B000B441433B0
:100C0000BA681A600648FA7BB98913469B001344F8
:100C10009B0003440C33196000BF1037BD4680BDF4
:100C2000000002400000002080B483B000AF034603
:100C30000A46FB711346BB71FB799B00FB71084BA5
:100C40005B68F979BA790A44012101FA02F2114686
:100C5000034A0B43536000BF0C37BD4680BC70474E
:100C60000000024080B500AF044B1B68002B02D08F
:100C7000024B1B68984700BF80BD00BFB800002032
:100C800080B500AF044B5B68002B02D0024B5B6861
:100C9000984700BF80BD00BFB800002080B500AFFE
:100CA000044B9B68002B02D0024B9B68984700BF07
:100CB00080BD00BFB800002080B500AF044BDB68EA
:100CC000002B02D0024BDB68984700BF80BD00BFFD
:100CD000B800002080B500AF044B1B69002B02D088
:100CE000024B1B69984700BF80BD00BFB8000020C1
:100CF00080B500AF044B5B69002B02D0024B5B69EF
:100D0000984700BF80BD00BFB800002080B500AF8D
:100D1000044B9B69002B02D0024B9B69984700BF94
:100D200080BD00BFB800002080B483B000AF034690
:100D30000A46FB711346BB71214B1B68FA790121EE
:100D400001FA02F211461E4A0B431360BB79022BD3
:100D500026D0022B2FDC002B02D0012B15D02AE04D
:100D6000174BDB68FA79012101FA02F21146144AA5
:100D70000B43D360124B9B68FA79012101FA02F20E
:100D800011460F4A0B43936015E00D4BDB68FA796F
:100D9000012101FA02F21146094A0B43D3600AE02D
:100DA000074B9B68FA79012101FA02F21146044AC5
:100DB0000B43936000BF00BF0C37BD4680BC70473B
:100DC0000004014080B483B000AF03463960FB717A
:100DD000FB790F2B04D8FB7904493A6841F82320AA
:100DE00000BF0C37BD4680BC704700BFD400002058
:100DF00080B500AF054B01225A61054B1B68002BE3
:100E000002D0034B1B68984700BF80BD000401401F
:100E1000D400002080B500AF054B02225A61054B7B
:100E20005B68002B02D0034B5B68984700BF80BD16
:100E300000040140D400002080B500AF054B04221F
:100E40005A61054B9B68002B02D0034B9B68984767
:100E500000BF80BD00040140D400002080B500AF79
:100E6000054B08225A61054BDB68002B02D0034B6F
:100E7000DB68984700BF80BD00040140D40000201B
:100E800080B500AF054B10225A61054B1B69002B42
:100E900002D0034B1B69984700BF80BD000401408E
:100EA000D400002080B582B000AF0523FB7124E0A0
:100EB000164B5A69FB7922FA03F303F00103012B65
:100EC00018D1124B1A68FB7922FA03F303F00103DD
:100ED000012B0FD1FB7901229A400C4B5A61FB790F
:100EE0000B4A52F82330002B04D0FB79084A52F801
:100EF00023309847FB790133FB71FB79092BD7D954
:100F000000BF00BF0837BD4680BD00BF00040140E0
:100F1000D400002080B582B000AF0A23FB7120E02E
:100F2000144B5A69FB7922FA03F303F00103012BF6
:100F300014D1104B5B69FA79012101FA02F21146D2
:100F40000C4A0B435361FB790B4A52F82330002BB8
:100F500004D0FB79084A52F823309847FB790133D3
:100F6000FB71FB790F2BDBD900BF00BF0837BD46F3
:100F700080BD00BF00040140D400002080B483B0D5
:100F800000AF0346FB710B46BB7113467B71FB79C7
:100F9000124A52F82330DA68BB790F2101FA03F3C1
:100FA000DB431846FB790D4951F823300240DA60E3
:100FB000FB790A4A52F82330DA687979BB7901FA69
:100FC00003F31846FB79054951F823300243DA60F0
:100FD00000BF0C37BD4680BC704700BF68000020D2
:100FE00080B582B000AF0023FB7123E00023BB710A
:100FF0001AE0FB79002B02D0012B09D011E0BB795C
:10100000254AD25CB979FB79184600F04DF808E022
:10101000BB79224AD25CB979FB79184600F044F8D2
:1010200000BFBB790133BB71BB790F2BE1D9FB79D1
:101030000133FB71FB79022BD8D90023FB7123E02C
:101040000023BB711AE0FB79002B02D0012B09D0E1
:1010500011E0BB79124AD25CB979FB79184600F0ED
:10106000EFF808E0BB790F4AD25CB979FB791846F2
:1010700000F0E6F800BFBB790133BB71BB790F2BE1
:10108000E1D9FB790133FB71FB79022BD8D900BF81
:1010900000BF0837BD4680BD280000203800002072
:1010A000480000205800002080B485B000AF0346FF
:1010B000FB710B46BB7113467B71FB79022B00F26F
:1010C000B7807B791B11DBB203F00103FB737B79E3
:1010D00023F010037B71BB79072B51D8FB79574A5A
:1010E00052F823301A68BB799B000F2101FA03F3F1
:1010F000DB431846FB79514951F8233002401A600E
:10110000FB794E4A52F823301A687979BB799B00F3
:1011100001FA03F31846FB79484951F8233002439A
:101120001A607B79082B14D1FB7B002B11D1FB7942
:10113000424A52F82330DA68BB79012101FA03F3FD
:10114000DB431846FB793D4951F823300240DA6011
:101150006EE07B79082B6BD1FB7B012B68D1FB798F
:10116000364A52F82330DA68BB79012101FA03F3D9
:101170001846FB79314951F823300243DA6057E0D1
:10118000BB790F2B54D8BB79083BBB71FB792B4A39
:1011900052F823305A68BB799B000F2101FA03F300
:1011A000DB431846FB79254951F8233002405A6049
:1011B000FB79224A52F823305A687979BB799B002F
:1011C00001FA03F31846FB791C4951F82330024316
:1011D0005A607B79082B14D1FB7B002B11D1FB7952
:1011E000164A52F82330DA68BB79012101FA03F379
:1011F000DB431846FB79114951F823300240DA608D
:1012000016E07B79082B13D1FB7B012B10D1FB79E6
:101210000A4A52F82330DA68BB79012101FA03F354
:101220001846FB79054951F823300243DA60FFE79D
:1012300000BF1437BD4680BC704700BF6800002067
:1012400080B483B000AF0346FB710B46BB711346FD
:101250007B71FB79022B1DD8BB790F2B1AD87B79B8
:10126000002B0CD0012B15D1BB79012202FA03F11E
:10127000FB790B4A52F823300A461A610AE0BB791F
:10128000012202FA03F1FB79054A52F823300A469B
:101290005A6100BF00BF0C37BD4680BC704700BF1D
:1012A0006800002080B400AF034B044A1A6000BFFE
:1012B000BD4680BC704700BF0CED00E00005A05F9C
:1012C00080B483B000AF0346FB71FB791F2B05D8B8
:1012D000FB7901229A40074B1A6005E0FB79203B1D
:1012E00001229A40044B1A6000BF0C37BD4680BCF7
:1012F000704700BF00E100E004E100E080B400AF0F
:101300001D4B1B6823F0F8031B4A43F08003136056
:10131000194B1B68184A43F480231360164B1B6853
:10132000154A43F480331360134B5B68124A43F051
:1013300001035360104B5B680F4A23F002035360B4
:101340000D4B5B680C4A23F4404353600A4B5B68C7
:10135000094A23F460535360074B5B68064A23F441
:10136000E0635360044B5B68034A23F0F00353606F
:1013700000BFBD4680BC70470010024080B483B0FF
:1013800000AF03460A46FB711346BB71FB791F2B66
:101390001BD8BB79002B0CD0012B5AD12F4B5B698A
:1013A000FA79012101FA02F211462C4A0B435361EA
:1013B0004FE02A4B5B69FA79012101FA02F2D2432C
:1013C0001146264A0B40536143E0FB793F2B1ED860
:1013D000FB79203BFB71BB79002B0CD0012B38D162
:1013E0001E4B9B69FA79012101FA02F211461B4A50
:1013F0000B4393612DE0194B9B69FA79012101FAA6
:1014000002F2D2431146154A0B40936121E0FB7969
:101410005F2B1ED8FB79403BFB71BB79002B0CD0B6
:10142000012B16D10D4BDB69FA79012101FA02F289
:1014300011460A4A0B43D3610BE0084BDB69FA798A
:10144000012101FA02F2D2431146044A0B40D36152
:1014500000BF00BF0C37BD4680BC70470010024083
:1014600080B500AF124B1B68114A23F48033136020
:10147000104B1B78012B11D10D4B1B680C4A23F02C
:10148000010313600A4B1B68094A23F0020313602F
:10149000074B00225A60064B00229A60064B1B68DD
:1014A000002B02D0044B1B68984700BF80BD00BFD3
:1014B00010E000E0140100201801002080B483B087
:1014C00000AF03460A46FB711346BB800C4B00225B
:1014D0001A600B4B1B680A4A43F080031360084BE9
:1014E0001B68FA7912011146054A0B431360BB8849
:1014F0005A1E034B9A6200BF0C37BD4680BC704732
:10150000002C014080B483B000AF0346FB71FB792F
:10151000032B00F28D8001A252F823F02D15000854
:1015200077150008B5150008F3150008434B9B69B3
:10153000424A43F008039361404B9B693F4A23F0C2
:10154000010393613D4B9B693C4A23F00203936185
:101550003A4B9B69394A43F070039361374B1B6ADE
:10156000364A23F002031362344B1B6A334A43F0BA
:10157000010313625CE0314B9B69304A23F44073F2
:1015800093612E4B9B692D4A43F4006393612B4B6F
:101590009B692A4A43F4E0439361284B1B6A274A1C
:1015A00023F020031362254B1B6A244A43F01003E7
:1015B00013623DE0214BDB69204A23F00303D36132
:1015C0001E4BDB691D4A43F00803D3611B4BDB69EB
:1015D0001A4A43F07003D361184B1B6A174A23F46D
:1015E00000731362154B1B6A144A43F48073136231
:1015F0001EE0124BDB69114A23F44073D3610F4B99
:10160000DB690E4A43F40063D3610C4BDB690B4A80
:1016100043F4E043D361094B1B6A084A23F40053A7
:101620001362064B1B6A054A43F48053136200BFE2
:1016300000BF0C37BD4680BC704700BF002C014086
:101640002DE9B04F8AB000AF0346B961FB7713466E
:10165000BB77BB7F642B73D8BB690022BB60FA6089
:101660003A4B9B6A013300223B617A61D7E9020160
:101670000B463A6902FB03F27B6984460CFB03F3D9
:10168000134402463969A2FB01894B4499464246FC
:101690004B462F484FF00001FEF76AFD02460B460D
:1016A00093B21A46920013441A4691001A460B460A
:1016B00013449B009BB2013BBB84BB7F002B24D017
:1016C000BB7F00223B607A60BB8C0133DA179A46FD
:1016D0009346D7E900010B460AFB03F2034603FBDE
:1016E0000BF313440246A2FB0A452B441D464FF060
:1016F00064024FF0000320462946FEF739FD0246FA
:101700000B4693B2013BFB8401E00023FB84FB7F8B
:10171000032B15D80D4ABB8CD3620C49FB7FFA8C86
:101720000C339B000B445A60084B5B6C074A43F434
:1017300000435364054B1B68044A43F001031360E4
:1017400000BF2837BD46BDE8B08F00BF002C014068
:1017500000127A0080B500AF074B1B68002B02D047
:10176000054B1B689847054B1B69044A23F001038E
:10177000136100BF80BD00BF1C010020002C014090
:1017800080B400AF284BDB68274A43F40053D36092
:10179000254B254ADB68D360234B234A1B69136121
:1017A000214B214ADB68D3601F4B1F4ADB68D360A3
:1017B0001D4BDB681C4A43F00C03D3601A4B4FF4FB
:1017C000D0729A60184B5B69174A43F0C0035361AB
:1017D000164BDB68154A43F40053D360134B134A8E
:1017E000DB68D360114B114A1B6913610F4B0F4A21
:1017F000DB68D3600D4BDB680C4A43F02003D360F9
:101800000A4BDB68094A43F00C03D360074B4FF4E3
:10181000D0729A60054B5B69044A43F080035361C0
:1018200000BFBD4680BC70470044004000480040F7
:1018300080B483B000AF03460A46FB711346BB7108
:10184000FB79104A52F823301A68FB790D4951F898
:10185000233022F040021A60FB790A4A52F8233002
:10186000BA795A6000BFFB79064A52F823301B68E8
:1018700003F04003002BF6D000BF00BF0C37BD467D
:1018800080BC70477400002080B483B000AF034672
:101890003960FB713B68002B04D0FB7904493A683E
:1018A00041F8232000BF0C37BD4680BC704700BF05
:1018B0002001002080B500AF074B1B68064A23F0CB
:1018C00020031360054B1B68002B02D0034B1B68E1
:1018D000984700BF80BD00BF0038014020010020B4
:1018E00080B500AF074B1B68064A23F02003136046
:1018F000054B5B68002B02D0034B5B68984700BF29
:1019000080BD00BF004400402001002080B500AF32
:101910000A4B9B685B68DBB21A46094B1A60094B9D
:101920001B68084A23F020031360074B9B68002BB9
:1019300002D0054B9B68984700BF80BD7400002013
:1019400030010020004800402001002080B485B014
:1019500000AF0346FB8001237B817B891A4652013D
:10196000D21A520113447B810023FB810DE0002336
:10197000BB8103E000BFBB890133BB81BA897B898E
:101980009A42F7D3FB890133FB81FA89FB889A429B
:10199000EDD300BF00BF1437BD4680BC70470000C8
:1019A00080B500AF0B4B1B78DBB219460120FFF767
:1019B0003FFF084B1B78DBB2052B09D10648FEF729
:1019C000C4FD01210220FEF7DCFD0448FEF7BDFD49
:1019D00000BF80BD31010020900000208000002069
:1019E00080B500AF044B1B78DBB21A4603490020D8
:1019F000FFF726FE00BF80BD31010020A086010058
:101A000080B500AF044B1B78DBB21A4603490120B6
:101A1000FFF716FE00BF80BD31010020A086010047
:101A200080B500AF044B1B78DBB21A460349022095
:101A3000FFF706FE00BF80BD31010020A086010037
:101A400080B500AF044B1B78DBB21A460349032074
:101A5000FFF7F6FD00BF80BD31010020A086010028
:101A600080B500AF364B1B78DAB2364B1A70344B68
:101A70001B78DBB2002B02D0012B09D011E0324BD6
:101A80001B78DAB2314B1A702D4B01221A7008E024
:101A90002D4B1B78DAB22E4B1A70294B00221A708C
:101AA00000BF284B1B78DBB2002B3DD1274B1B78A6
:101AB000DBB2082B41D801A252F823F0E11A00084A
:101AC000E91A0008F11A0008F91A0008011B0008B9
:101AD000091B0008111B0008191B0008211B000826
:101AE0001C4B1D4A1A6028E01A4B1B4A1A6024E05E
:101AF000184B194A1A6020E0164B174A1A601CE06E
:101B0000144B164A1A6018E0124B154A1A6014E07A
:101B1000104B144A1A6010E00E4B134A1A600CE086
:101B20000C4B0D4A1A6008E0064B1B78DBB2012B08
:101B300003D1084B1B689847FFE700BF80BD00BF7B
:101B40003401002032010020300100203301002048
:101B5000310100202C010020A1190008E119000822
:101B6000011A0008211A0008411A000880B500AFC8
:101B7000FEF736FD00BF80BD80B586B006AFFFF72B
:101B8000BDFB01212220FFF7F9FB01212320FFF7F4
:101B9000F5FB01212020FFF7F1FB01215220FFF787
:101BA000EDFB01215120FFF7E9FB01212B20FFF77D
:101BB000E5FB01210020FFF7E1FBFFF711FAFFF73A
:101BC00071FBFFF7DDFD01210020FFF777FC01230A
:101BD0000493002303930023029300230193032320
:101BE00000930023002202210520FEF759FD062064
:101BF000FFF766FB02210020FFF796F81E49002040
:101C0000FFF7E0F800210020FEF70EFD0020FFF7AF
:101C100079FC0120FFF776FC0220FFF773FC03201C
:101C2000FFF770FC002215490020FFF709FD002294
:101C300012490120FFF704FD002210490220FFF79E
:101C4000FFFC00220D490320FFF7FAFCFEF710FC11
:101C50002720FFF735FB0A490220FFF715FE102069
:101C6000FFF72EFB0423032204210520FEF780FF4B
:101C70000520FEF719FFFEE76D1B0008A086010096
:101C8000611A00080D488546AFF300800C480D49E5
:101C90000D4A002302E0D458C4500433C4188C42C7
:101CA000F9D30A4A0A4C002301E013600432A2422D
:101CB000FBD300F011F8FFF75FFFFEE700500020B4
:101CC000000000209C000020481D00089C0000200F
:101CD00038010020FEE7000070B500260C4D0D4CC9
:101CE000641BA410A64209D100F01AF800260A4D80
:101CF0000A4C641BA410A64205D170BD55F8043BE4
:101D000098470136EEE755F8043B98470136F2E76D
:101D1000401D0008401D0008401D0008441D00082B
:101D2000F8B500BFF8BC08BC9E467047F8B500BFC8
:081D3000F8BC08BC9E46704798
:081D380068E4FF7F01000000D8
:041D40005501000841
:041D44003101000861
:101D48000438014004380140044400400444004081
:101D580004480040044800400C3001400C30014069
:101D68000C3800400C38004000000D04020202024A
:101D78000A0A0A0A0202020202020202020202021B
:101D880002020D040202020200010000010100002B
:101D98000000000001010101000000000000000037
:101DA800000000000101010100080140000C014091
:101DB8000010014000380140004400400048004045
:101DC80057656C636F6D6520486F6D650000000096
:0C1DD800446F6F72204F70656E656400F0
:0400000508001C854E
:00000001FF
